:100000000C9492040C94AF040C94AF040C94AF04C1
:100010000C94AF040C94AF040C94AF040C94AF0494
:100020000C94AF040C94AF040C94A52E0C94772F71
:100030000C9418250C94AF040C94AF040C94AF04EA
:100040000C94AF040C94AF040C94AF040C94AF0464
:100050000C94AF040C9480250C94AF040C94AF0462
:100060000C94AF040C94AF040C94AF040C94AF0444
:100070000C94AF040C94AF040C94AF040C94AF0434
:100080000C94AF040C94AF040C94AF040C94AF0424
:100090000C94AF040C94AF040C94AF040C94AF0414
:1000A0000C94AF040C94AF040C94AF040505080540
:1000B0000B050E051105140517051B071E07230761
:1000C0002D07210726072B07290719091B092609D0
:1000D0001D091F0921092309250928092A092C09B5
:1000E00037092E0930093209340936093909171A36
:1000F000171A491A491A801A9E1AF31B511CE01A42
:10010000511C791B791BEA1B511C511C4B1C861B73
:10011000861B861B861B861B861B861B861B861BD7
:10012000861B861B861B861B861B861B861B971BB6
:10013000A41BAB1BB21BBC1BE21CE21CF41CF41C7A
:10014000EB1CF41CF41CF41CE21CE21CF01CF41C60
:10015000F41CF01C0829FE2816295E296229622950
:100160005E29622962293729622941294B2962299E
:100170006229622962295E29622962295E2962292F
:100180002429622962295B295B295B295B295B2978
:100190005B295B295B295B29602962290829FB28E7
:1001A00062296229622962296229622962296229F7
:1001B000622962296029622962295E2962295929F6
:1001C000592959295929592959295929592959291F
:1001D0006029E42F0B3003310B30033157307A3074
:1001E0000331D130E0306572676F646F785F657A94
:1001F0002F61766F6361646F204020302E362E347D
:1002000031342D312D676461316630350029002B82
:1002100000E000E1001F4100001E00140004001D6A
:100220000029004D001F001A0016001B00E3002AE1
:1002300000200008000700060065002C00210015C2
:100240000009001900E2004A00220017000A000518
:100250000000004C0022022F0000003000000001CE
:10026000533500250200002E000000E20023001C90
:10027000000B00110000002961240018000D00107F
:10028000002C014B0025000C000E00360050002809
:1002900000260012000F0037005100E50027001370
:1002A000003300380052004E002D0031003400E4CD
:1002B000004F000000F55C010001000100F45C004B
:1002C000003A001E0220022202010001003B001F32
:1002D000022102230201007D003C002F0226022F92
:1002E0000001007C003D00300227023000010001C7
:1002F000003E00310235003502000001000100011E
:1003000000000001000000010001000100000001E8
:1003100000000001003F004B004E002402000001DD
:100320000040004A00500046000100010041005218
:1003300000510047003700010042004D004F0048C7
:100340000027000100430025022E0231002E00018B
:10035000004400450001000100010000000100010F
:100360000001000100010000000100010001000186
:10037000000100010001000100F200010001000184
:10038000000100F000F1000100F400010001000193
:1003900000F3000100F5000100010001000100016F
:1003A0000000000100010001000000010000000148
:1003B0000001000100000001000000010001000137
:1003C0000001000100000001000100010001000126
:1003D00000A9000100010001000100AC00AA00B664
:1003E00000010001000100AB00A8000100010001B4
:1003F00000010001000100010001000100AE000148
:10040000000100000000000000000000002A2B286E
:1004100000000000000000000000000000000000DC
:1004200029000000002C1E342021222434262725F8
:100430002E362D3738271E1F202122232425263330
:1004400033362E37381F0405060708090A0B0C0D32
:100450000E0F101112131415161718191A1B1C1D44
:100460002F3130232D350405060708090A0B0C0D22
:100470000E0F101112131415161718191A1B1C1D24
:100480002F3130354C00000000000000000000005B
:10049000000000000000000000000000000000005C
:1004A000000000000000000000000000000000004C
:1004B000000000000000000000000000000000003C
:1004C000000000000000000000000000000000002C
:1004D000000000000000000000000000000000001C
:1004E000000000000000000000000000000000000C
:1004F00000000000000000000000000000000000FC
:1005000000000000000000000000000000000000EB
:1005100000000000000000000000000000000000DB
:1005200000000000000001010101010100010101C2
:1005300001000000000000000000000000000001B9
:10054000000100010101010101010101010101019D
:10055000010101010101010101010101010101018B
:100560000000000101000000000000000000000089
:10057000000000000000000000000000000000007B
:10058000010101010000047F3F1F64321464321432
:10059000783C1E1E140A052223252628292A2C2DE4
:1005A0002F3032333536383A3B3D3E4042434547A3
:1005B000494A4C4E5051535557595A5C5E606264DB
:1005C0006668696B6D6F71737577797B7D7F8183E9
:1005D0008587898A8C8E90929496989A9C9E9FA1EA
:1005E000A3A5A7A8AAACAEAFB1B3B4B6B8B9BBBC0B
:1005F000BEBFC1C2C3C5C6C7C9CACBCCCDCED0D180
:10060000D2D2D3D4D5D6D7D7D8D9D9DADADBDBDB77
:10061000DCDCDCDCDCDDDDDDDDDCDCDCDCDCDBDB18
:10062000DBDADAD9D9D8D7D7D6D5D4D3D2D2D1D06C
:10063000CECDCCCBCAC9C7C6C5C3C2C1BFBEBCBB69
:10064000B9B8B6B4B3B1AFAEACAAA8A7A5A3A19FE1
:100650009E9C9A98969492908E8C8A8987858381A5
:100660007F7D7B79777573716F6D6B696866646286
:10067000605E5C5A5957555351504E4C4A49474554
:100680004342403E3D3B3A3836353332302F2D2CF5
:100690002A292826252322FFAA7F55400000000092
:1006A000000000000000010101010101010101023F
:1006B000020202020202020303030303030304040F
:1006C00004040405050505050606060606070707D2
:1006D00007080808080909090A0A0A0B0B0B0C0C81
:1006E0000C0D0D0D0E0E0E0F0F1010101111121219
:1006F00013131414151516161717181819191A1A92
:100700001B1C1C1D1D1E1F1F2021212223232425ED
:100710002526272828292A2B2C2C2D2E2F30313125
:1007200032333435363738393A3B3C3D3E3F404131
:1007300042434445464748494B4C4D4E4F50525317
:1007400054555758595A5C5D5E60616364656768CB
:100750006A6B6C6E6F7172747677797A7C7D7F814B
:1007600082848687898B8D8E9092949597999B9D94
:100770009FA1A2A4A6A8AAACAEB0B2B4B6B9BBBDA4
:10078000BFC1C3C5C8CACCCED0D3D5D7DADCDEE171
:10079000E3E6E8EAEDEFF2F4F7F9FCFF04033000DA
:1007A000000016034500720067006F0044006F00F0
:1007B0007800200045005A00000016034500720032
:1007C00067006F0044006F007800200045005A0069
:1007D00000000403090409023B00020100A0FA0919
:1007E0000400000103010100092111010001224060
:1007F000000705810308000A090401000103000045
:100800000009211101000122C00007058203200018
:100810000A1201100100000008EDFE07130100019B
:1008200002030105010902A10185020901A10005D8
:100830000919012905150025019505750181029504
:1008400001750381010501093009311581257F9565
:10085000027508810609381581257F950175088183
:1008600006050C0A38021581257F95017508810659
:10087000C0C005010980A1018503160100260300FF
:100880001A81002A8300751095018100C0050C09AA
:1008900001A1018504160100269C021A01002A9C70
:1008A00002751095018100C005010906A1018505A9
:1008B000050719E029E71500250195087501810252
:1008C0000508190129059505750191029501750322
:1008D00091010507190029EF1500250195F0750113
:1008E0008102C005010906A101050719E029E715E4
:1008F00000250195087501810295017508810105A2
:100900000819012905950575019102950175039155
:10091000010507190029FF150026FF009506750837
:100920008100C00011241FBECFEFDAE0DEBFCDBFD3
:1009300012E0A0E0B1E0EAEBF5E602C005900D920E
:10094000A230B107D9F723E0A2E0B2E001C01D92C6
:10095000A938B207E1F70E94CD2B0C94DB320C943E
:10096000000080B38C7080BB81B3836F81BB08951E
:1009700084B1807F84B985B1807F85B98AB1837F56
:100980008AB98BB1837F8BB93E9846980895CF93EF
:10099000E82F873080F58091060190910701892B1F
:1009A00009F047C0CE2F64E670E080E40E94BE15D7
:1009B0009093070180930601892BD1F464E670E0DF
:1009C00082E10E9415169093070180930601892BFE
:1009D00079F481E090E001C0880FCA95EAF764E6F7
:1009E00070E080950E941516909307018093060190
:1009F000CF910C946A1690E0FC013797E730F1052F
:100A0000C0F4EA5AFF4F0C945F31209A289811C025
:100A1000219A29980EC0229A2A980BC0239A2B98C3
:100A200008C0529A5A9805C0539A5B9802C03E9AE1
:100A30004698CF910895CF93873008F03FC08091BA
:100A4000060190910701892B09F041C064E670E02E
:100A500080E40E94BE159093070180930601892BC4
:100A600011F0C0E027C064E670E083E10E94151633
:100A70009093070180930601892B99F764E670E053
:100A800081E40E94BE159093070180930601892B93
:100A900041F784E690E00E94451697FF05C09093C9
:100AA000070180930601DDCFC82FC0951092070182
:100AB000109206010E946A168C2F0AC09FB18FB156
:100AC000807F869586959370892B809501C080E004
:100AD000CF91089508950C946A050E946B0690E0EA
:100AE00090930701809306010E94B8040E94B1040C
:100AF000E3E0F2E0A1E1B2E011921D9282E0E13187
:100B0000F807D1F78EE00E942D0D0C9465080E9425
:100B10006B0690E090930701809306010E94B80451
:100B20000E94B104E3E0F2E0119282E0E131F807C3
:100B3000D9F70895EF92FF920F931F93CF93DF930E
:100B40008091060190910701892B91F0809102021A
:100B50008F5F8093020281110BC00E946B0690E0B0
:100B60009093070180930601892B11F40E94FD05E3
:100B700001E112E0C0E0F12C87E0E82EEC0E8C2FB2
:100B80000E94C7048E2D0E94C7048C2F0E941B0553
:100B9000F8019081891719F08083D1E001C0D0E07D
:100BA0008E2D0E941B05F8019781891719F0878304
:100BB00081E001C080E0D82BFD2A0E94B804CF5FFD
:100BC0000F5F1F4FC730C1F62F2D4EE063E072E07C
:100BD00081E192E00E949F0D0E946F0881E0DF9109
:100BE000CF911F910F91FF90EF900895E82FF0E0C3
:100BF000ED5FFD4F80810895089556985E98259881
:100C00002D9826982E9827982F988FEF90E0909304
:100C100089008093880090938B0080938A00909342
:100C20008D0080938C00259A2D9A2FEF80E792E01B
:100C3000215080409040E1F700C00000269A2E9A93
:100C40002FEF80E792E0215080409040E1F700C014
:100C50000000279A2F9A2FEF80E792E021508040E2
:100C60009040E1F700C0000025982D982FEF80E715
:100C700092E0215080409040E1F700C000002698AB
:100C80002E982FEF80E792E0215080409040E1F7CE
:100C900000C0000027982F9856985E9825982D98A8
:100CA00026982E9827982F98089589EA8093800097
:100CB00089E08093810024982C983F988AB18F7C9A
:100CC0008AB96E98479A8BB180638BB9769A0E94E5
:100CD000FD050C94010780E290E09093070180935A
:100CE000060180911F0281110EC00E94B81581E09B
:100CF00080931F022FEF83ED90E3215080409040BE
:100D0000E1F700C0000064E670E080E40E94BE15D8
:100D10009093070180930601892B09F04EC064E689
:100D200070E080E00E941516909307018093060101
:100D3000892B09F042C064E670E080E00E9415163D
:100D40009093070180930601892BB9F564E670E062
:100D50008FE30E9415169093070180930601892B5B
:100D600061F50E946A1664E670E080E40E94BE1598
:100D70009093070180930601892BF9F464E670E0F3
:100D80008CE00E9415169093070180930601892B31
:100D9000A1F464E670E080E00E94151690930701CC
:100DA00080930601892B49F464E670E08FE30E948A
:100DB000151690930701809306010E946A16809190
:100DC000060108959C01FB0182818823C1F0253F23
:100DD000FCE53F0751F0263F9CE5390759F0243FD9
:100DE0003C4571F40E94332408C086EE91E00E94D5
:100DF000620803C081E00E94561380E0089581E0FC
:100E000008950895CF92DF92EF92FF926B017C01DB
:100E100056985E9825982D9826982E9827982F9862
:100E20000E94692390E088309105C8F4FC01E35AE0
:100E3000FF4F0C945F310E946B1311C0259A2D9ABD
:100E40000EC0259A2D9A269A2E9A09C0259A2D9A77
:100E500004C0259A2D9A269A2E9A279A2F9AC7016E
:100E6000B601FF90EF90DF90CF9008950F931F93FE
:100E7000CF93DF939C013A9521153F4148F5EB0153
:100E80008C0190FF03C080EEFB01099511FF03C0A8
:100E900081EEFE01099512FF03C082EEFE01099565
:100EA00013FF03C083EEFE0109950115104180F088
:100EB00084EEFE01099585EEFE01099586EEFE01A0
:100EC000099587EEFE01DF91CF911F910F91099453
:100ED000DF91CF911F910F910895877091E001C02C
:100EE000990F8A95EAF7892F0E94CB220C9406234A
:100EF0000C946D07877091E001C0990F8A95EAF70D
:100F0000892F0E94D1220C9406230C947A07CF9348
:100F1000DF93EC01805E9109089710F0209719F497
:100F20006DE677E002C068E777E0CE010E94360701
:100F30008C2FDF91CF910C942F18CF93DF93EC017E
:100F40000E945919CE01805E9109089710F02097F0
:100F500019F46AE777E002C065E877E0CE01DF9137
:100F6000CF910C943607CF93DF93EC010E94870753
:100F7000CE01DF91CF910C949D0781E008950C94F0
:100F8000E2061F93CF93DF9300D000D01F92CDB71E
:100F9000DEB749835A836B832091590289819A81F4
:100FA000211112C0662349F00E943422182F682FA5
:100FB00089819A810E94DB2103C00E940722182F99
:100FC00069817A81812F04C00E94342269817A81EB
:100FD0000F900F900F900F900F90DF91CF911F9176
:100FE0000C94AA0AFC014081518162817381848141
:100FF0000C94C1071F93CF93DF9390E0FC01EB5F4C
:10100000FB4F1491FC01EB5FFA4FD491FC01EB57BD
:10101000FB4FC491DD2319F081EE0E942F18CC23E1
:1010200019F086EE0E942F18812F0E94C119CC233F
:1010300019F086EE0E945919DD2331F081EEDF911F
:10104000CF911F910C945919DF91CF911F91089561
:101050000F931F93CF93DF93EC01062FFE01849132
:10106000882359F19E012F5F3F4F813041F4E90100
:10107000F9011491812F0E942F18812F0DC0823009
:1010800031F4E901F90184910E942F180AC08330DC
:1010900031F4E901F90184910E94591902C00E94BA
:1010A000FA072196802F8823C9F2EFE9FFE03197F4
:1010B000F1F700C000008150F6CFDF91CF911F9172
:1010C0000F91089560E00C9428080E94B9238111C3
:1010D00002C00E9433240E94F00D0C9455060C941B
:1010E0006B05282F2F7041F0822F90E02A3010F4EA
:1010F0004D9608950697089587E290E00895089523
:101100000C947F080C94800808950E94D01C0E94C3
:1011100084082FEF84E39CE0215080409040E1F769
:1011200000C000000C94A6250F931F93CF93DF936C
:101130008C010E94F207EC01B8010E94BF078823CE
:1011400009F4FEC1B801CE010E94640E882309F49F
:10115000F7C1B801CE010E947715882309F4F0C1C8
:10116000CA3CFCE5DF0741F4F8018281882309F4D9
:10117000E7C10E944111E4C1CB3C8CE5D80708F0DF
:1011800012C1C33C9CE5D90761F4F8018281882330
:1011900009F4D6C10E94B5228272E1F00E94531375
:1011A000CFC1C43CECE5DE07C0F0C63C9CE5D907E6
:1011B00009F4CAC008F0DCC0C43CFCE5DF0709F054
:1011C000CBC0F8018281882309F4BAC10E94B522FC
:1011D000827221F30E944613B3C1C531FCE5DF07DB
:1011E00008F07BC0C2308CE5D80708F452C0F80183
:1011F0008281882309F454C00E94B923811102C05E
:101200000E9433240E94CC2390E090937703809334
:101210007603FE01E350FC45E231F10530F4EB5971
:10122000FF4F809176030C945F318091760381604B
:1012300027C0826025C0846023C0806121C0806295
:101240001FC080641DC080681BC08460886018C097
:101250008E7F16C08D7F14C08B7F12C08F7E10C012
:101260008F7D0EC08F7B0CC08F770AC08B7F877FEE
:1012700007C087FB222720F991E0922790FB87F98E
:1012800080937603809176030E94D0230E94D01C25
:1012900057C1C1159CE5D90751F0C130DC4579F043
:1012A000C801DF91CF911F910F910C94BD07F801F8
:1012B0008281882309F444C10E94850841C1F80154
:1012C0008281882309F43CC18091F802982F90957F
:1012D00090FB80F98093F80233C1C631FCE5DF074B
:1012E00039F50E94B522982FF801828120911801CA
:1012F00030911901882379F09A7A81E009F480E02D
:1013000080932002911102C069E201C065E3C90126
:101310000E949B240AC080912002811102C069E2D0
:1013200001C065E3C9010E94A6240E94062308C1EA
:10133000C23CDC4509F0B4CFF8018281882309F46E
:10134000FFC00E946113FCC0F8018281882309F468
:10135000F7C00E940511F4C0C53CDC4509F0A0CFE0
:10136000F8018281882309F4EBC00E94F810E8C0DC
:10137000F8018281C83CFCE5DF0731F4882309F4D9
:10138000DFC00E942311DCC0C93CDC4530F4882357
:1013900009F4D6C00E941411D3C0882309F4D0C028
:1013A0000E943211CDC0C13DECE5DE0791F4F80199
:1013B0008281882309F4C4C00E94790F8F3028F0FD
:1013C0000E94790F843108F405CF8FE00E945613F4
:1013D000B7C0C23DFCE5DF0708F05AC0CD3C8CE544
:1013E000D80739F4F8018281882309F4A9C081E083
:1013F000EDCFCE3C9CE5D907C0F4CB3CECE5DE0755
:1014000041F4F8018281882309F49AC00E94810F77
:1014100097C0CC3CDC4509F043CFF801828188239A
:1014200009F48EC00E94920F8BC0F8018281CF3CDC
:10143000FCE5DF0771F4882309F482C00E94790F6C
:10144000863028F00E94790F883008F4C3CE86E0F9
:10145000BDCFC03DDC4570F4882309F471C00E9403
:10146000790F823028F00E94790F853008F4B2CECF
:1014700082E0ACCF882309F463C00E94790F8930E1
:1014800028F00E94790F8E3008F4A4CE89E09ECF18
:10149000C53DECE5DE0739F4F8018281882309F4C3
:1014A0004FC083E293CFC63DFCE5DF0740F5F8016E
:1014B0008281C33DFCE5DF0729F4882309F440C09D
:1014C00088E184CFC43DDC4568F48823C9F10E94DB
:1014D000790F853128F00E94790F873108F47ACE90
:1014E00085E174CF882361F10E94790F893128F05A
:1014F0000E94790F823208F46DCE89E167CFCD3D2D
:10150000ECE5DE0741F4F80182818823C9F082E02E
:101510000E946C2C15C0CE3DFCE5DF0739F4F801C4
:101520008281882369F00E9433240AC0CC3DDC45C7
:1015300009F0B6CEF8018281882311F080E0E8CF6F
:1015400080E0DF91CF911F910F91089580E090E0AE
:101550000895089524E5829FC0011124FC0126E02E
:10156000729FE00DF11D1124E60FF11DEE0FFF1F1C
:10157000E35FFD4F859194910895880F991FFC01B9
:10158000EB57FA4F859194910895CF93DF930E9482
:10159000AA0A0E948E0CEC018115904508F041C00A
:1015A000C11580E4D80708F02DC1C83ED10510F55B
:1015B000C03ED10508F0AEC1C83AD10578F4C53AAD
:1015C000D10508F0A7C0C130D10509F4A3C108F4C2
:1015D00054C1C430D10508F09DC14FC1CF3BD105E6
:1015E00008F4A3C0C03CD10508F447C1CE01805C1B
:1015F0009109FAC0C11590E2D90758F4C11521E04C
:10160000D20708F087C1C03FD10508F436C1D065C4
:1016100081C1C11580E3D80708F0EAC0CE019F70F0
:10162000E3C0C11595E5D90708F043C0C11524E50D
:10163000D20708F0FEC0C11582E5D80708F5C1152C
:1016400091E5D90708F0E1C0CE0174E09695879541
:101650007A95E1F783709C2F937021E030E002C00F
:10166000220F331F9A95E2F73C68382BCF70C6954E
:10167000C69580E2C89FE0011124C22BD32B4AC13A
:101680009E01237033278C2F86958695C115D345EF
:1016900008F0C0C0C1E0D0E002C0CC0FDD1F2A9529
:1016A000E2F720E2829FC0011124C82BD92BDC680D
:1016B00031C1C1152AE5D207A0F4C11589E5D807C3
:1016C00008F0C6C0C11596E5D90708F4B7C0C11522
:1016D00028E5D20708F4D1C0DC2FCC27C06FD06A30
:1016E00019C1C1158BE5D80708F4C7C0C1159CE521
:1016F000D90708F4BFC0CE0190568115904208F07A
:10170000BCC08D2F8F710E940A0DDD27D0628F71B2
:10171000D82B00C1C53AD10509F4B2C0C63AD105EB
:1017200009F0B1C0C2E8D0E4F5C0C83AD10509F467
:10173000ADC0C93AD10509F4ACC0CA3AD10509F423
:10174000ABC0CB3AD10509F4AAC0CC3AD10509F413
:10175000A9C0CB3BD10509F4A8C0CC3BD10509F405
:10176000A7C0CD3AD10509F4A6C0C03BD10509F404
:10177000A5C0CE3AD10509F4A4C0CF3AD10509F4E9
:10178000A3C0C13BD10509F4A2C0C23BD10509F4F5
:10179000A1C0C33BD10509F4A0C0C43BD10509F4E5
:1017A0009FC0C53BD10509F49EC0C63BD10509F4D5
:1017B0009DC0C73BD10509F49CC0C83BD10509F4C5
:1017C0009BC0C93BD10509F49AC0CD3BD10509F4B2
:1017D00099C0CE3BD10509F498C0CA3BD10509F4A4
:1017E00097C0C0E0D4E496C00E94BD0AEC0192C04C
:1017F000CE019927D3FF03C0EC01D86C8BC0EC015C
:10180000D06C88C0DF70D06A85C0DC2FCC27C16F58
:10181000D06A80C0C1E0D0E002C0CC0FDD1F2A95A5
:10182000E2F720E2829FC0011124C82BD92BDA688D
:1018300071C0DC2FCC27C46FD06A6CC08C2F0E9483
:101840000A0D8F71C82FD0E0DC2FCC27D06262C088
:101850008C2F8F700E940A0D94E0D695C7959A95AB
:10186000E1F7CF70D0E0DC2FCC27D06A8F70806E8C
:10187000C82B50C0DD27D0664DC0C0E0D0E04AC0C4
:10188000C1E8D0E447C0C3E8D0E444C0C2EED4E429
:1018900041C0C9EED4E43EC0CAEED4E43BC0C5EBBF
:1018A000D4E438C0C6EBD4E435C0C3EBD4E432C0D2
:1018B000C4EBD4E42FC0C7EBD4E42CC0CCECD4E40C
:1018C00029C0CDECD4E426C0C3E8D5E423C0CAE8DF
:1018D000D5E420C0C2E9D5E41DC0C4E9D5E41AC0EE
:1018E000C1E2D6E417C0C3E2D6E414C0C4E2D6E431
:1018F00011C0C5E2D6E40EC0C6E2D6E40BC0C7E212
:10190000D6E408C0CFE6D4E405C0C0E7D4E402C002
:10191000CAE2D6E4CE01DF91CF91089582389105D5
:1019200049F1B0F48133910509F459C048F4893282
:10193000910509F44FC08A32910509F455C0089504
:101940008533910509F441C08933910599F00895D3
:10195000833E910531F138F4803E910591F0823E4D
:101960009105A9F00895863E910501F1873E910504
:1019700039F108952091760320FD3BC021FD39C047
:1019800008958091760380FF34C089E341C080913F
:10199000760382FF30C08091760384FD2EC083EEF3
:1019A00037C08091760382FD26C0F5CF8091760303
:1019B00083FF25C08091760384FD1FC087EE28C079
:1019C0008091760383FD1BC0F5CF8091760385FD62
:1019D00018C019C08091760385FD15C012C0809192
:1019E000760386FD12C013C08091760386FD0FC07A
:1019F0000CC080EE0DC082EE0BC080E009C086EE08
:101A000007C089E205C085E303C08AE201C081E323
:101A100090E008959091760392FF0DC0282F2871D1
:101A2000283019F4877F846006C0282F2471243061
:101A300011F48B7F886093FF0DC0282F2871283107
:101A400019F4877E846106C0282F2471243111F493
:101A50008B7E886194FD877E0895CF93C82F90E098
:101A60000E9465318093220290932302282FFC016B
:101A70009BEF8E2F821B8C1710F49193FACFCF918E
:101A800008950F931F93CF93DF93109221025091EB
:101A90002202E52FF091230240E0A62FB0E07BEF79
:101AA000CAEFD0E09E2F951B9817D0F490819B3FF2
:101AB000A9F0292F30E0691728F08D01021B130BC4
:101AC000980106C08E01021B130B98012A0F3B1FC1
:101AD0002530310514F0708301C041E03196E2CF2A
:101AE00040932102DF91CF911F910F910895CF93E1
:101AF000DF93109224025091220230912102DB01E7
:101B0000EC01E52FF091230290E08E2F851B8417C6
:101B100078F489916C91681741F060816B3F21F4F2
:101B200020838C9331E001C091E031961196EDCF86
:101B30003093210290932402DF91CF910895CF92A8
:101B4000DF92EF92FF921F93CF93DF937C016B01A3
:101B5000C42F122F0E944A256AEF70E00E9437318D
:101B6000D82F80912102882319F16D2F8C2F0E948C
:101B7000410D112369F02D2F4C2FB601C701DF91C4
:101B8000CF911F91FF90EF90DF90CF900C94770D45
:101B900080912102882379F3809124028111EBCF77
:101BA000DF91CF911F91FF90EF90DF90CF9008953C
:101BB0001111E1CFF1CFCF93DF9397FF0DC0FB0160
:101BC0002281222349F0EC010E94060ECE019F776C
:101BD0000E94470E0E94300E81E0DF91CF91089560
:101BE0008CE090E00E94933290E0A0E0B0E080931F
:101BF0002A0390932B03A0932C03B0932D030895F5
:101C000060912A038CE090E00C94A7320E94B522E8
:101C100080932E030E94C82280912A03813071F0A4
:101C200048F0823081F08430A1F486EE0E94C11920
:101C300088E10DC082EE0E942F180BC088E193E06E
:101C40000E94B30706C082EE0E942F1887E50E940B
:101C5000C1198FE39CE90197F1F700C000000895D6
:101C600080912A03813039F040F0823031F08430A5
:101C700051F488E206C08CE204C082EE0E94591939
:101C800002C00E94C11980912E030C94C5220F93AB
:101C90001F93CF93DF938C01CCE0D0E0C8010C2ED2
:101CA00002C0969587950A94E2F78F700E9471089A
:101CB0000E94C1192497CC3F8FEFD80779F7DF91A5
:101CC000CF911F910F9108950F931F93CF93DF939F
:101CD000EC018B01FB018281882319F1C33EFCE5F5
:101CE000DF07C1F050F4C13EECE5DE0781F0C23EF3
:101CF000FCE5DF07B1F481E010C0C43E8CE5D807F5
:101D000059F0C53EECE5DE0761F484E006C01092B0
:101D10002A0305C082E001C083E080932A030E9469
:101D2000000EB801CE01DF91CF911F910F910C945D
:101D3000DB0DCF92DF92EF92FF920F931F93CF9321
:101D4000DF93362F472F282FE82FF0E0711106C0C0
:101D5000E456F94F6491762F862F7BC0072F10E051
:101D600056E0659FC0011124CFEFD0E0BE010E9474
:101D700037315BEA5603C001579F900D1124830F42
:101D8000911D830F911D982F990F980F7E01E01AD6
:101D9000F10AEE9ED001EF9EB00DFE9EB00D112413
:101DA0008B2F499FA0011124452F55277E01E41A4E
:101DB000F50AEE9EA001EF9E500DFE9E500D1124DF
:101DC0006E01C91AD108C09E7001C19EF00CD09E50
:101DD000F00C11240F2D1127C01BD10BCE9F8001B9
:101DE000CF9F100DDE9F100D11246230710591F010
:101DF00048F461157105E1F061307105B1F49B2F74
:101E0000E52F0AC06430710569F040F06630710555
:101E100079F00BC0912FEB2F822F0DC0922FEB2F5B
:101E2000852F09C0922FE12F06C0952FE22F03C006
:101E30009B2FE22F812FF0E0E456F94F7491E82FA9
:101E4000F0E0E456F94F6491E92FF0E0E456F94FE1
:101E50008491DF91CF911F910F91FF90EF90DF90D0
:101E6000CF9008950895CF93DF93762FE901682FDF
:101E7000842F0E94990E798368838A83DF91CF91A2
:101E8000089580912F03282F269530E021153105E4
:101E900019F48170826005C02532310524F081700B
:101EA000886480932F03089588E090E00C949B321F
:101EB000CF92DF92EF92FF926B017C010E94410F63
:101EC000B701A60188E090E0FF90EF90DF90CF90FF
:101ED0000C94B932EFE2F3E083E0808311828FEF5C
:101EE00082838383148260817181828193810C94C7
:101EF000580F80912F0380FF02C08695089580E0DF
:101F0000089580913303833018F48F5F80933303F7
:101F100060912F03709130038091310390913203CF
:101F20000C94580F80913303882319F081508093CB
:101F3000330360912F0370913003809131039091AE
:101F400032030C94580F60910C0170E080912F03C4
:101F500080FF0AC08091290224E0829FC0011124E1
:101F60008C5C9C4F0C94C1148091280290910B01C1
:101F7000891780F724E0829FF0011124EC5CFC4F6C
:101F80001182108212828F5FF3CF90912F0390FF06
:101F900013C09091280220910B01921758F434E05D
:101FA000939FF0011124EC5CFC4F8183608342839A
:101FB0009F5FF3CF0C94A30F0895CF93DF9300D0CE
:101FC00000D0CDB7DEB790912F0390FF0AC09E01DD
:101FD0002F5F3F4F0E94330F4B8169818A810E949E
:101FE000C50F0F900F900F900F90DF91CF91089534
:101FF000CF93DF93EC01EC81F0E0E956FA4F449186
:10200000EFE2F3E0628181810E94DD0F8C818F5FBE
:102010008C83DF91CF910895CF93DF93EC01EFE2B2
:10202000F3E0438162818C810E94DD0F8C818F5FA0
:102030008C83DF91CF9108950F931F93CF93DF93FC
:1020400000D000D0CDB7DEB78C0180912502811180
:102050000AC09E012F5F3F4F4FEF6FEF0E94330F7B
:102060008A8180932502F8018481813051F028F023
:10207000823061F4409125020AC08091250240E03F
:1020800007C06091250240E080E003C040E080E0AE
:1020900060E00E94C50FF801848190E0019663E042
:1020A00070E00E944B3184830F900F900F900F903F
:1020B000DF91CF911F910F910895AF92BF92CF9270
:1020C000DF92EF92FF920F931F93CF93DF9300D095
:1020D00000D0CDB7DEB7182FF62E042FE22E909148
:1020E0002F0390FF6CC0E92FE695AE2FB0E0AE5203
:1020F000BE4F8C91809331029E7F923061F49E019D
:102100002F5F3F4F812F0E94330F4B8169818A815E
:102110000E94C50F42C0823019F4009132033DC0C5
:10212000863019F41091300338C08930D9F38931E1
:10213000A1F5E9518E2F8170D82EE695F0E0E95691
:10214000F94FA590B490C12CBB2460910A01C6162A
:1021500010F52C2D30E0A29EC001A39E900DB29EE2
:10216000900D112470E00E943731812FD11002C0F0
:10217000860F01C0861B90912802290F311D220F66
:10218000331F220F331F2C5C3C4F402F6F2D0E94BA
:10219000330FC394DACF0E94A30F10933003F09251
:1021A000310300933203EE2051F060912F037091C0
:1021B000300380913103909132030E94580F0F90A9
:1021C0000F900F900F90DF91CF911F910F91FF9083
:1021D000EF90DF90CF90BF90AF900895EFE2F3E0E3
:1021E0009181282F438162818CE0890F0C945D10CE
:1021F00081E00C94EE10EFE2F3E09181282F43810F
:10220000628184EF890F0C945D1081E00C94FB10C7
:10221000EFE2F3E062812FEF620F08F46FEF282FF7
:10222000438181810C945D1081E00C940811EFE2F0
:10223000F3E062812FEF621B08F460E0282F4381F6
:1022400081810C945D1081E00C941711EFE2F3E0B2
:1022500043812CE0420F08F44FEF282F62818181E7
:102260000C945D1081E00C942611EFE2F3E04381C1
:102270002CE0421B08F440E0282F628181810C94FD
:102280005D1081E00C94351120E00C945D10FF92FC
:102290000F931F93CF93DF93EC01F12C0FEF10E01E
:1022A00060910A01F616E8F4809128022F2D30E0A3
:1022B000280F311D220F331F220F331F2C5C3C4F80
:1022C00070E0C8010E944B31962F8C8140913203FF
:1022D00060913103F99E800D11240E94330FF39415
:1022E000DFCF0E94A30F9A818C8190FF02C08F5F85
:1022F00001C081508C83DF91CF911F910F91FF908E
:102300000895BF92CF92DF92EF92FF920F931F93A7
:10231000CF93DF93FC01828180FF02C00FEF01C0E9
:1023200001E010E080910A011817D8F58091280289
:10233000C12ED12CE601C80FD11DCC0FDD1FCC0F53
:10234000DD1FCC5CDC4F198218821A8224E0E22E59
:10235000F12CB12C809127028B0D87FF03C0909147
:102360000A01890F082E000C990BC816D90691F4A2
:10237000809132038E9DA0018F9D500D11245595A3
:102380004795559547959E016091310380913003A3
:102390000E94330FB00EF1E0EF1AF108D9F61F5F7B
:1023A000C1CF0E94A30F80912702013031F4811127
:1023B00002C080910A01815007C090E001966091AF
:1023C0000A0170E00E944B3180932702DF91CF9188
:1023D0001F910F91FF90EF90DF90CF90BF900895E5
:1023E0000F931F93CF938091280290910B0189172F
:1023F00058F424E0829FF0011124EC5CFC4F118220
:10240000108212828F5FF3CFC0E060910A01C6177D
:1024100090F50C2F10E070E0C8010E944B31E09164
:1024200028028E0F20912602022E000C330BE82F7B
:10243000F0E0EE0FFF1FEE0FFF1F02171307A4F0CF
:1024400080910901082E000C990B8017910764F008
:102450009F012C5C3C4F409132036091310380918D
:1024600030030E94330F05C0EC5CFC4F11821082D8
:102470001282CF5FCACF0E94A30F209108018091E2
:102480002602820F8093260290910901920F909369
:10249000090119165CF4082E000C990B40910A01F1
:1024A00050E041505109841795071CF02195209365
:1024B0000801CF911F910F9108950F931F93CF9310
:1024C000DF938C01FC0184819581019681709927AD
:1024D00095838483C0E0D5E580910A01C817F8F49C
:1024E000809128022C2F30E0280F311D220F331F3E
:1024F000220F331F2C5C3C4F4C2F4695F8018481F2
:102500009581840F911D8170409132036091310358
:102510008D9F802D11240E94330FCF5FDDCFDF917F
:10252000CF911F910F910C94A30F0F931F93CF93F3
:10253000DF93EC0100E010E080910A01282F30E0E9
:10254000021713071CF5909128029801290F311DDD
:10255000220F331F220F331F2C5C3C4F869590E0D7
:102560004C81081719071CF4442331F002C04111B3
:1025700003C04091320301C040E06091310380917B
:1025800030030E94330F0F5F1F4FD6CF0E94A30F5F
:102590008C8190E00196817099278C83DF91CF9197
:1025A0001F910F910895EFE2F3E080818E7F808389
:1025B00060817181828193810E94580F1092320252
:1025C0002FEF80E792E0215080409040E1F700C07B
:1025D00000000C94A30F60912F03669570E04BE010
:1025E00050E08DE091E00E948632892B19F481E061
:1025F000809332020E944A2590932B0280932A02F4
:10260000089590912F0390FF35C09170811102C001
:10261000926006C0853210F0986402C0880F982B33
:1026200090932F03662351F060912F037091300334
:1026300080913103909132030E94580F60912F03D3
:10264000669570E04BE050E08DE091E00E948632AC
:10265000892B19F01092320202C00E94EB1281E025
:1026600080932D02409132036091310380913003B9
:102670000C9444110895682F90912F03969581E052
:10268000890F853208F081E00C94011381E00C94ED
:102690003B13682F90912F0396958FEF890F09F4C4
:1026A00084E20C94011381E00C94491361E00C94D2
:1026B0000113EFE2F3E080818160808386950C94C2
:1026C000561380912F0380FD0C94D3120C94591350
:1026D00060E00C94011380913002811133C080912D
:1026E000F80281608093F8020E94B923811104C02E
:1026F0000E9433240E946A0F0E94540F60932F039C
:102700007093300380933103909332036E7F61F4B2
:102710000E946A0F0E94540F60932F03709330033E
:1027200080933103909332030E94410F1092320242
:1027300080912F0380FF03C086950E94681381E07B
:102740008093300208950F931F93CF93DF9380916E
:102750003202882309F48CC080913102E0912F036A
:10276000E695E81BE0932C02823049F4F0E0ED5648
:10277000FA4FE491CE2FD0E008EF1FE049C0863039
:1027800049F4F0E0E057FA4FE491CE2FD0E00CE0AE
:1027900010E13EC0893051F4E695F0E0E357FA4F7E
:1027A000E491CE2FD0E007E411E132C08F3051F434
:1027B000E695F0E0E657FA4FE491CE2FD0E001E83D
:1027C00011E126C0853149F4F0E0E957FA4FE49170
:1027D000CE2FD0E000EF11E11BC0883181F08332B1
:1027E00039F4E5E8F5E0C591D4910CE110E110C0B1
:1027F000843251F4C4EFD1E005E912E109C0C8EE1A
:10280000D3E00DE512E104C0C0EDD7E002E31FE024
:1028100080912D02882389F010922D020E944A2572
:102820009E0120953095820F931F90932B028093E9
:102830002A0210922F0210922E0280912A02909169
:102840002B020E9456258C179D0790F0E0912A02DA
:10285000F0912B02CE0FDF1FD0932B02C0932A02E0
:102860008AE292E0F801DF91CF911F910F910994D4
:10287000DF91CF911F910F910895882319F05198FE
:10288000599A02C0519A59985098589A95E09A9539
:10289000F1F70000509A589895E09A95F1F70000EA
:1028A000882311F0519A599885E08A95F1F7000034
:1028B00008958BB18C7F8BB95098589A5198599A3A
:1028C00085E08A95F1F7000008958AB18C7F8AB976
:1028D00085E08A95F1F70000519A599885E08A952C
:1028E000F1F70000509A589885E08A95F1F70000BA
:1028F00008955098589A85E08A95F1F7000051980C
:10290000599A85E08A95F1F700000895CF93DF93F7
:10291000D82FC8E08D2F80780E943D14DD0FC15064
:10292000C9F780E00E943D1485E08A95F1F7000028
:1029300085E08A95F1F7000080E0DF91CF9108955E
:102940002BB1342F309523233BB1432B3FB7F89461
:10295000FC01680F791FE617F70789F0819198E06D
:102960004BB9000000C087FF2BB9880F000000C0E2
:1029700000C000C02BB900C09A9591F7ECCF3FBFC3
:102980000895AF92BF92CF92DF92EF92FF920F9392
:102990001F93CF93DF938C01EB01CFB6D090BC0097
:1029A000F8948091BC008B7F8093BC000E945914E6
:1029B0000E94651484E80E948614CC0FDD1FCC0FA2
:1029C000DD1F78015801AC0EBD1EEA14FB0431F086
:1029D000F70181917F010E948614F7CF0E9479143C
:1029E000CFBED092BC00579A40E8BE01C801DF912B
:1029F000CF911F910F91FF90EF90DF90CF90BF90FC
:102A0000AF900C94A0140F931F93CF93DF93C62F16
:102A1000D42F122FFC0182818823C9F060933502E4
:102A20000E944A25909334028093330280E28C0FF7
:102A3000883008F057C0C77081E001C0880FCA9580
:102A4000EAF7DF91CF911F910F910C94D4198091E7
:102A50003502681330C080913302909134020E9495
:102A60005625883C910538F500E20D0FCD17B9F0D9
:102A700080E28C0F883040F4C77081E001C0880F7D
:102A8000CA95EAF70E94DB19083028F581E09D2FEE
:102A9000977001C0880F9A95EAF70E94D419812F88
:102AA0000E94C1190830F0F4D77081E001C0880F8E
:102AB000DA95EAF70AC080E28C0F883098F4C77084
:102AC00081E001C0880FCA95EAF7DF91CF911F918D
:102AD0000F910C94DB19812FDF91CF911F910F91F2
:102AE0000C94C119DF91CF911F910F9108959C0112
:102AF000CB01203F4CE53407F9F078F4283DFCE5A4
:102B00003F07B9F0293D4CE5340711F1273D3C451D
:102B100031F526E241EE61EE1EC0223FFCE53F07A3
:102B200099F070F0233F3C45D1F427E245EE66EE84
:102B300012C027E245EE0EC026E241EE60EE0BC069
:102B400027E245EE64EE07C026E241EE62EE03C0E6
:102B500028E241E065EE0E94031580E00895FC0143
:102B60008281882319F010923502089581E008953A
:102B70001092B9008CE08093B8000895EF92FF9214
:102B80000F931F93CF93DF93182FEB011092BC008C
:102B900084EA8093BC000E944A257C018091BC009D
:102BA00087FD0EC0CF3F8FEFD807C1F30E944A25A3
:102BB0008E199F098C179D0788F38EEF9FEF2EC00B
:102BC0008091B900887F883041F08091B900887F7A
:102BD000803119F08FEF9FEF21C01093BB0084E884
:102BE0008093BC000E944A258C018091BC0087FD27
:102BF0000CC0CF3F8FEFD807C1F30E944A25801B3E
:102C0000910B8C179D0788F3D8CF8091B900887FEE
:102C1000883111F08034F1F680E090E0DF91CF91BF
:102C20001F910F91FF90EF9008950F931F93CF93F3
:102C3000DF93EB018093BB0084E88093BC000E948B
:102C40004A258C018091BC0087FD0EC0CF3F8FEFDD
:102C5000D807C1F30E944A25801B910B8C179D0752
:102C600088F38EEF9FEF0CC02091B900287F81E0A0
:102C700090E0283211F480E090E0919581959109DF
:102C8000DF91CF911F910F9108950F931F93CF93D1
:102C9000DF93EC0184E88093BC000E944A258C01FC
:102CA0008091BC0087FD0EC0CF3F8FEFD807C1F3E6
:102CB0000E944A25801B910B8C179D0788F38EEF8D
:102CC0009FEF03C08091BB0090E0DF91CF911F91F7
:102CD0000F91089584E98093BC00089590933B027E
:102CE00080933A020895E0913A02F0913B023097C6
:102CF00021F00190F081E02D099480E00895E091A9
:102D00003A02F0913B02309799F020912901222359
:102D100059F02091760327FF07C0DC012C91119612
:102D20002C93119725E02C930280F381E02D0994D8
:102D30000895E0913A02F0913B02309739F022E099
:102D4000DC012C930480F581E02D099408952091F5
:102D50003802309139022817390771F090933902FF
:102D600080933802E0913A02F0913B02309721F0D3
:102D70000680F781E02D0994089520913602309164
:102D800037022817390771F0909337028093360283
:102D9000E0913A02F0913B02309721F00084F185F6
:102DA000E02D0994089585B7806885BF85B7806850
:102DB00085BF089508950C94DA160C94DB160C94D4
:102DC000DA160C94DA160E94D3160E94DF160C94C1
:102DD000DD1681E008950E9441250E946D050E9444
:102DE000D8250E946B130C94E116BF92CF92DF920C
:102DF000EF92FF920F931F93CF93DF93CDB7DEB780
:102E00002A970FB6F894DEBF0FBECDBF0E949A0579
:102E10000E94E916811111C08FEF89838A831B827A
:102E20000E944A258160782F9D838C8349815A8135
:102E30006B818D810E94DA1754C08DE3C82E82E029
:102E4000D82E00E010E0B02E802F0E94F605E82E6C
:102E5000F60121916F01F82EF22631F40F5F1F4F1A
:102E60000E30110581F7D8CF8091F80281FD0E94C4
:102E7000FC0580E090E02F2D30E0482FB901082EAE
:102E800002C0759567950A94E2F760FF25C08E83AE
:102E9000BF8281E090E06C0102C0CC0CDD1C4A9541
:102EA000E2F72E2D30E02C213D21232B09F480E088
:102EB00088870E944A258160782F9A8789874E816A
:102EC0005F8168858A850E94DA17F801E35CFD4F0F
:102ED00080818C25808305C001968630910569F636
:102EE000BDCF0E946B270E94731690913C028917F8
:102EF000A9F00E94731680933C022A960FB6F894AC
:102F0000DEBF0FBECDBFDF91CF911F910F91FF901C
:102F1000EF90DF90CF90BF900C9482082A960FB666
:102F2000F894DEBF0FBECDBFDF91CF911F910F91FF
:102F3000FF90EF90DF90CF90BF900895DC01119645
:102F40002C9111978C91682F70E041E050E001C006
:102F5000440F8A95EAF712968C91129730E08823F5
:102F600029F080915B028823E9F006C0F901E55B56
:102F7000FD4F90819423B1F086E0829FF001839F02
:102F8000F00D1124E60FF71FEE0FFF1FE65DFE4F59
:102F9000808191818D939C93F901E55BFD4F808148
:102FA000482B06C0F901E55BFD4F40958081482321
:102FB00040830895CF93DF93CDB7DEB72B970FB63D
:102FC000F894DEBF0FBECDBF942F4F83252F5887B7
:102FD00069877A878B874A855B85452B31F02F3F40
:102FE00031F481E09F3F19F403C081E001C080E02B
:102FF00080FD04C0CE0107960E949E17DE01119647
:1030000086E0FD0111928A95E9F785E0FE01379689
:1030100001900D928A95E1F749815A816B817C81FB
:103020008D819E810E94A01F2B960FB6F894DEBF63
:103030000FBECDBFDF91CF910895FC0180819181BA
:103040000E94762292959F70963041F480915B02A7
:1030500091E0892780935B0290935A020895CF9361
:10306000882309F424C1C82F8238C1F40E94731642
:1030700081FD1DC169E380911801909119010E94A1
:103080009B240E9406232FEF81EE94E02150804084
:103090009040E1F700C0000069E319C0833801F5F2
:1030A0000E94731680FD03C163E580911801909121
:1030B00019010E949B240E9406232FEF81EE94E0C9
:1030C000215080409040E1F700C0000063E580910E
:1030D0001801909119010E94A624CF910C94062307
:1030E0008438C1F40E94731682FDE1C067E48091C8
:1030F0001801909119010E949B240E9406232FEF32
:1031000081EE94E0215080409040E1F700C0000043
:1031100067E4DDCF8CEF8C0F813A68F48C2F0E942E
:1031200073298111C4C06C2F8091180190911901ED
:103130000E949B24D2CF80E28C0F883048F4C77065
:1031400081E001C0880FCA95EAF70E94B822C5CF76
:103150008BE58C0F833078F4C53A29F0C63A31F00C
:1031600083E890E005C081E890E002C082E890E04A
:10317000CF910C94A71688E58C0F873108F08FC08B
:10318000C83A09F445C0C93A09F445C0CA3A09F435
:1031900045C0CB3A09F445C0CC3A09F445C0CB3B15
:1031A00009F445C0CC3B09F445C0CD3A09F445C00B
:1031B000C03B09F445C0CE3A09F445C0CF3A09F402
:1031C00045C0C13B09F445C0C23B09F445C0C33BFF
:1031D00009F445C0C43B09F445C0C53B09F445C0EA
:1031E000C63B09F445C0C73B09F445C0C83B09F4D8
:1031F00045C0C93B09F445C0CD3B09F445C0CE3BB1
:1032000009F445C0CA3B09F445C080E090E044C0E1
:1032100082EE90E041C089EE90E03EC08AEE90E000
:103220003BC085EB90E038C086EB90E035C083EB87
:1032300090E032C084EB90E02FC087EB90E02CC090
:103240008CEC90E029C08DEC90E026C083E891E002
:1032500023C08AE891E020C082E991E01DC084E9A2
:1032600091E01AC081E292E017C083E292E014C0BC
:1032700084E292E011C085E292E00EC086E292E024
:103280000BC087E292E008C08FE690E005C080E7BF
:1032900090E002C08AE292E0CF910C94BD16C03F4C
:1032A00030F08C2F0E947326CF910C946027CF9121
:1032B0000895882309F464C0823879F40E94731653
:1032C00081FF5EC069E380911801909119010E940D
:1032D0009B240E94062369E310C08338B1F40E9446
:1032E000731680FF4DC063E580911801909119011C
:1032F0000E949B240E94062363E58091180190910F
:1033000019010E94A6240C940623843879F40E94A3
:10331000731682FF35C067E48091180190911901FE
:103320000E949B240E94062367E4E7CF9CEF980F3E
:10333000913A10F4682FE1CF90E2980F983050F452
:10334000877091E001C0990F8A95EAF7892F0E9452
:10335000BE22D9CF9BE5980F933020F480E090E017
:103360000C94A71698E5980F973120F480E090E030
:103370000C94BD16803F20F00E94DB260C94602741
:103380000895CF93C82F0E942F18C93349F42FEF07
:1033900083EC99E0215080409040E1F700C00000AC
:1033A0008C2FCF910C945919882321F00E94B822B8
:1033B0000C9406230895882321F00E94BE220C94C9
:1033C000062308958F929F92AF92BF92DF92EF9261
:1033D000FF920F931F93CF93DF937C01062FC72F8C
:1033E000FC01158112951F70D281D1110E94D82243
:1033F0000E94AE22882379F0DD2369F080E2800FFD
:10340000883048F082E00E9450230E94AE2291E072
:10341000D82ED92601C0D12CBC2EB2948FE0B82270
:103420008B2D90E0FC01E958FF4F0C945F318C2FFD
:10343000807FCF70882311F0C295C07FDD2399F083
:10344000CC2309F4B2C180E2800F883010F0011162
:1034500004C08C2F0E94B82203C08C2F0E94CB2264
:103460000E940623A2C1802F0E945919CC2309F47F
:1034700018C280E2800F883010F0011104C08C2F38
:103480000E94BE2203C08C2F0E94D1220E940623DC
:1034900008C28C2F807FCF70803211F0C295C07F20
:1034A000002319F00130C9F021C0DD2371F0112390
:1034B00041F0113031F40E94EB228C2B0E94F32258
:1034C000F0C10E94EB228C2B29C1112319F011307D
:1034D00009F4E7C10E94FC2211C0DD2321F0123063
:1034E00008F0DFC107C01111DCC108C0DD2321F0E5
:1034F00011115BC18C2F12C1111168C18C2F14C125
:103500008C2F86958695837019F0813061F0C9C142
:10351000DD2321F0802F9C2F937002C080E090E08B
:103520000E94A716CBC1DD2321F0802F9C2F937022
:1035300002C080E090E00E94BD16C0C1DD23F9F01A
:10354000053F51F0063F71F0043FA9F480917003EC
:103550009091710381600BC0809170039091710311
:10356000826005C080917003909171038460909394
:10357000710380937003802F0E9473261EC0053F45
:1035800051F0063F71F0043FA9F4809170039091CF
:1035900071038E7F0BC080917003909171038D7FBA
:1035A00005C080917003909171038B7F909371039C
:1035B00080937003802F0E94DB260E9460277EC1CB
:1035C0008C2F837009F047C0D11174C1202F229530
:1035D00026952770220F220F602F6F70862F90E0A4
:1035E000A0E0B0E04C015D01022E04C0880C991CE3
:1035F000AA1CBB1C0A94D2F704FF10C08FE090E015
:10360000A0E0B0E004C0880F991FAA1FBB1F2A9535
:10361000D2F780959095A095B09503C080E090E09A
:10362000DC01C695C695C370BC01CD016829792916
:103630008A299B29C23049F058F4C13019F00E9400
:10364000F12038C10E94DF2035C10E94032132C120
:103650000E94DD202FC1DD2319F08C2F817001C065
:103660008695882309F426C1202F22952695277058
:10367000220F220F602F6F70862F90E0A0E0B0E045
:103680004C015D01022E04C0880C991CAA1CBB1CB5
:103690000A94D2F704FF10C08FE090E0A0E0B0E001
:1036A00004C0880F991FAA1FBB1F2A95D2F78095C7
:1036B0009095A095B09503C080E090E0DC01C695A0
:1036C000C695C370BC01CD01682979298A299B2937
:1036D000C23049F058F4C13019F00E94B621EAC056
:1036E0000E94A421E7C00E94C821E4C00E941721C3
:1036F000E1C0802F90E0FC01E05EF109E531F105C9
:1037000008F04FC0E957FF4F0C945F310F708C2FBA
:103710008F71DD2331F00E943D21802F0E94D4194A
:10372000C0C00E945E21802F0E94DB19BAC0DD2339
:1037300039F01111B6C08C2F8F710E948321B1C056
:10374000123008F0AEC0F7CFDD2339F08C2F8F7127
:103750000E943D21A6C0DD23C9F38C2F8F710E94EA
:103760005E219FC0DD2329F08C2F8F710E942821BC
:1037700098C00E94232195C0DD2349F0CF718C2F82
:103780000E943D2163E08C2F0E943B238AC081E090
:103790000E945023123008F484C082E00E9450231B
:1037A00080C0DD2331F0112389F2802F0E942F1871
:1037B00078C0112391F2093349F4FFEF23EC89E03B
:1037C000F15020408040E1F700C00000802F0E94AF
:1037D000591967C04C2F4F70602FC7010E94A60A6D
:1037E0000E944E206BC0023FB1F028F4003F49F028
:1037F000013FF9F028C0043FB9F058F0053F71F0DF
:1038000022C0DD2309F447C090915B0281E0892743
:1038100008C081E0D827D0935B023DC0D1113BC0E6
:1038200081E080935B0237C0D11135C010925B02FA
:1038300032C0DD2329F080915A02882329F329C060
:10384000112311F328C080915A021123C1F088235B
:1038500041F090915B0281E0892780935B02109296
:103860005A02802FDD2319F00E942F1814C00E94E5
:10387000591986E0F70111928A95E9F70CC088235F
:1038800051F0D11108C090915B0281E089278093AB
:103890005B0210925A024C2F4F70602FC7010E949A
:1038A000A90AF8E0BF1631F0BF1640F086EF8B0D85
:1038B000823020F40E9473160E948208DD20E1F01D
:1038C0000E94AA2280FD18C0F70112820E94A42241
:1038D0000E943D21C7010E94881C0E94A422DF9102
:1038E000CF911F910F91FF90EF90DF90BF90AF901D
:1038F0009F908F900C945E21DF91CF911F910F913B
:10390000FF90EF90DF90BF90AF909F908F900895C1
:103910000F931F93CF93DF93EC01988189812B81C3
:103920003C81232B31F08F3F31F481E09F3F19F42C
:1039300003C081E001C080E080FD13C0CE010E9481
:103940009408882371F0688179818A810E9481229C
:103950008C010E94DA210E94CB20B801CE010E9486
:10396000E219DF91CF911F910F9108950E94D82203
:103970000E94E8220E9406230E9406280E946027D7
:1039800080E090E00E94A71680E090E00C94BD16C5
:1039900080911801909119010E94B1240C94B61CD9
:1039A0000E94C8220C94C81CE92FE295EF704E2F9C
:1039B00050E0FA013297EE30F105B0F4E456FF4FD3
:1039C0000C945F31803F91F018F4803E68F40EC093
:1039D000843F51F40BC0803E48F0813F29F406C07B
:1039E00093FB882780F9089580E0089581E0089589
:1039F0000E9476220E94D41C0895CF93DF9300D0BA
:103A000000D01F92CDB7DEB70F900F900F900F90A0
:103A10000F90DF91CF910895CF93DF9300D000D026
:103A200000D0CDB7DEB726960FB6F894DEBF0FBE36
:103A3000CDBFDF91CF9108951F93CF93DF93C091B6
:103A40005C0216E080915D02C81799F0D0E01C9FDF
:103A5000F0011D9FF00D1124E25AFD4F408151816C
:103A600062817381848195810E940C1D2196C770AB
:103A7000E9CFDF91CF911F91089540918E0250912F
:103A80008F026091900270919102809192029091C8
:103A900093020C940C1DCF938091930282958F70AA
:103AA00009F05FC080919002882309F45AC0809188
:103AB0005C02B0915D0270918E02A0918F024091E4
:103AC00091025091920291E07F3F09F090E0692FBE
:103AD000C6E08B1709F445C04115510521F0AF3FF1
:103AE00021F020E003C021E001C0262F90E020FD5E
:103AF00035C0C89FF001C99FF00D1124E25AFD4F57
:103B000021812A132BC02081271328C02281211153
:103B100025C0238134812417350710F42150310941
:103B2000241B350B283C3105C8F4209193022F70DB
:103B300020612093930226E0289FF001299FF00D39
:103B40001124ED59FD4F80818F70806180838EE854
:103B500092E00E94881CCF910C941C1D01968770E6
:103B6000B8CFCF910895AF92BF92CF92DF92EF92EC
:103B7000FF920F931F93CF93DF93CDB7DEB761977B
:103B80000FB6F894DEBF0FBECDBF8C0185E0F80103
:103B9000DE011D9601900D928A95E1F7D8014C91B6
:103BA00011965C9111971296EC9030918E02609173
:103BB0008F028091910290919202009731F06F3FB5
:103BC00031F421E03F3F19F403C021E001C020E0BF
:103BD000B22FB170BB2E20FD60C1F801C380D4802C
:103BE000A0909002AA2009F4EEC020919302C8167A
:103BF000D90628F0D601A81BB90BCD0104C08095C9
:103C000090958C0D9D1DFF24F394883C910580F0C8
:103C1000F12C207F09F09CC07C2DD98AC88A6E2D9A
:103C200089890E94FD1C8EE892E00E94881C2DC1AB
:103C3000822F807F09F054C0561314C0431312C062
:103C4000FE2CE1100FC02F702061209393020E9480
:103C50003D1D8EE892E00E94881C80919302F8013D
:103C600085835CC1CD2831F05F3F31F481E04F3F67
:103C700019F403C081E001C080E080FD03C081E051
:103C80008E2502C080E090E0F82FF170FF2E80FFBB
:103C90001CC080915C0220915D0236E0821709F41D
:103CA0001AC190E0389FF001399FF00D1124E25ABB
:103CB000FD4F6181561306C06081461303C06281C7
:103CC000E61203C001968770E9CFFE2CEE2009F4BE
:103CD00025C180919302816080939302F12C1EC1D3
:103CE000561309C0431307C0E11005C08091930229
:103CF000F8018583A4C04D875E878D859E850E94CF
:103D0000F81C882379F1EE2069F120919302822F2B
:103D100082958F7090E0029774F080918E0290915E
:103D20008F0298878F831986DB86CA862C87CE01FF
:103D300007960E94881C86E0F801AEE8B2E0019088
:103D40000D928A95E1F70E944B1D0E943D1D0DC00A
:103D5000561771F04D875E878D859E850E94F81CF1
:103D600081111AC0C8010E94881CFF24F394D6C098
:103D70004313F0CFE110EECF80919302F8018583D9
:103D8000C8010E94881C86E0EEE8F2E0DF011D9287
:103D90008A95E9F7FA2CC2C0EE2021F32091930214
:103DA000822F82958F7090E002972CF280918E0284
:103DB00090918F029A8389831B82DD82CC822E832D
:103DC000CE010196B6CFC816D90628F0F601E81B39
:103DD000F90BCF0104C0809590958C0D9D1D883CFA
:103DE000910548F0F12C7C2DD98AC88A6E2D8989DD
:103DF0000E94FD1C4AC0FE2CEE2009F4B3CF5613DE
:103E000033C0431331C02091930220FD24C0822F80
:103E100082958F70482F50E041155105E1F0D8018F
:103E200015962C9315974F30510549F08F5F982FB9
:103E30009295907F822F8F70892B15968C93C80155
:103E40000E94881C86E0F801AEE8B2E001900D9275
:103E50008A95E1F73DC086E0F801AEE8B2E0019056
:103E60000D928A95E1F75AC04D875E878D859E85B4
:103E70000E94F81C81115FCF809193028160809332
:103E80009302C8010E94881C49C0EEE8F2E086E077
:103E9000DF011D928A95E9F71BC0EE2009F462CF7D
:103EA0004D875E878D859E850E94F81CF82E88239D
:103EB00009F458CF86E0F801AEE8B2E001900D9227
:103EC0008A95E1F78EE892E00E941D180E944B1D32
:103ED0000E943D1D23C04D875E878D859E850E9473
:103EE0007622292F22952F70223028F49F7039F0E6
:103EF000811105C00BC0243028F49F7049F4805E06
:103F0000883020F0C8010E94881CBF2CFB2C06C002
:103F1000D80115969C91907F91F7F8CF8F2D6196DF
:103F20000FB6F894DEBF0FBECDBFDF91CF911F91CA
:103F30000F91FF90EF90DF90CF90BF90AF900895DA
:103F40001F93CF93DF93CDB7DEB72C970FB6F894BE
:103F5000DEBF0FBECDBF4F83588769877A878B87B7
:103F60009C87CE0107960E94B31D8823D1F09F81C4
:103F700088852A853B85232B31F08F3F31F481E002
:103F80009F3F19F403C081E001C080E080FD47C07D
:103F90004F81588569857A858B859C850E940C1D8B
:103FA0003EC086E0FE013796DE01119601900D922B
:103FB0008A95E1F7FF81E8856A857B856115710542
:103FC00031F0EF3F31F481E0FF3F19F403C081E0AD
:103FD00001C080E080FD23C020915D0230E0C90176
:103FE00001968770992740915C0250E084179507ED
:103FF000F1F1F983EA837D836C8396E0929FD0018F
:10400000939FB00D1124A25ABD4FFE01319601902D
:104010000D929A95E1F780935D020E941C1D16E0B7
:1040200080915C0290915D02891771F1189FC00127
:104030001124825A9D4F0E94B31D882329F1E091DB
:104040005C021E9FF0011124E25AFD4F4081518114
:1040500062817381848195810E940C1D80915C0234
:1040600090E001968770992780935C02D9CF0E94D7
:10407000D01C10925D0210925C02EEE8F2E086E045
:10408000DF011D928A95E9F72C960FB6F894DEBFF2
:104090000FBECDBFDF91CF911F910895EF92FF9298
:1040A0000F931F93CF93DF938C01892B09F46CC07E
:1040B000F12CEE24E394E8012196F80184918437F1
:1040C00040F4843008F051C0813081F0823019F121
:1040D0005BC0853709F444C0A8F19CE7980F90377E
:1040E00008F052C08F770E94591941C00E5F1F4FD0
:1040F000FE01849190E2980F983050F48770FE2D65
:1041000001C0FF0F8A95EAF78F2F0E94DB2214C0AF
:104110000E942F182DC00E5F1F4FFE01849190E268
:10412000980F983060F48770FE2D01C0FF0F8A95BC
:10413000EAF78F2F0E94E1220E94062319C00E94F5
:10414000591916C00E5F1F4FFE01C491CC2381F098
:104150008FE99FE00197F1F700C00000C150F6CF52
:104160000E5F1F4FFE01F49003C00E942F188E01B6
:104170008F2D882309F49FCFEFE9FFE03197F1F706
:1041800000C000008150F5CFDF91CF911F910F91BA
:10419000FF90EF900895089508950C94CC200C940E
:1041A000CD200E94CF206093CF027093D0028093E5
:1041B000D1029093D2020C94B61C0C94D1200F9390
:1041C0001F930091CF021091D0022091D102309123
:1041D000D202602B712B822B932B1F910F910C9489
:1041E000D1200F931F930091CF021091D002209104
:1041F000D1023091D20260237123822393231F9135
:104200000F910C94D1200F931F930091CF02109126
:10421000D0022091D1023091D202602771278227EB
:1042200093271F910F910C94D1200C9402070E94A8
:1042300015216093CB027093CC028093CD029093B2
:10424000CE020C94B61C60E070E0CB010C941721F8
:104250000F931F9341E050E060E070E08A019B0102
:1042600004C0000F111F221F331F8A95D2F7C90106
:10427000B8011F910F910C9417210F931F9341E0E8
:1042800050E060E070E004C0440F551F661F771FC8
:104290008A95D2F78091CB029091CC02A091CD0269
:1042A000B091CE028A019B01082B192B2A2B3B2BA4
:1042B000C901B8011F910F910C9417210F931F93FF
:1042C00041E050E060E070E004C0440F551F661FFD
:1042D000771F8A95D2F7409550956095709580919B
:1042E000CB029091CC02A091CD02B091CE028A0176
:1042F0009B01082319232A233B23C901B8011F91DD
:104300000F910C9417210F931F9341E050E060E050
:1043100070E004C0440F551F661F771F8A95D2F7BF
:104320008091CB029091CC02A091CD02B091CE02AF
:104330008A019B01082719272A273B27C901B801B1
:104340001F910F910C9417210F931F930091CB0293
:104350001091CC022091CD023091CE02602B712BB6
:10436000822B932B1F910F910C9417210F931F9366
:104370000091CB021091CC022091CD023091CE025F
:1043800060237123822393231F910F910C94172193
:104390000F931F930091CB021091CC022091CD027C
:1043A0003091CE0260277127822793271F910F91AA
:1043B0000C9417210895292F220F920F990F890F1E
:1043C000E82FE695E695E695877051E001C0550F18
:1043D0008A95EAF785E0E89FF0011124EC56FD4F3D
:1043E00020E030E070E04081CB01022E02C09695C3
:1043F00087950A94E2F78170819584278523842725
:1044000081932F5F3F4F2530310569F70895292F9C
:10441000220F920F990F890F682F66956695669502
:10442000982F977085E0689FB001112440E050E01C
:1044300080E0FB01E40FF51FEC56FD4F208130E0DA
:10444000092E02C0369527950A94E2F7217033278A
:10445000042E01C0220F0A94EAF7822B4F5F5F4FB0
:104460004530510531F70895BF92CF92DF92EF9218
:10447000FF920F931F93CF93DF938C01C090CB02D9
:10448000D090CC02E090CD02F090CE028091CF028D
:104490009091D002A091D102B091D202C82AD92A1B
:1044A000EA2AFB2ACFE1D0E0D701C6010C2E04C0D6
:1044B000B695A795979587950A94D2F780FD04C085
:1044C000219790F7B12C07C0BC2EB8018C2F0E9409
:1044D000C50A0197A9F38B2DDF91CF911F910F9101
:1044E000FF90EF90DF90CF90BF900895CF93DF9330
:1044F000EC010E943422BE010E94C50ADF91CF91D7
:1045000008951F93CF93DF93EB0190915902992364
:1045100021F0CB010E94762213C0882349F0CB0101
:104520000E943422182F682FCE010E94DB2104C084
:10453000CB010E940722182FBE01812F0E94C50ABD
:10454000DF91CF911F9108958091D3028595859534
:10455000859508958091D302877008959091D30234
:10456000977081E009F480E008958091F702089542
:104570009091F702892B8093F7020895809590918E
:10458000F70289238093F70208958093F702089534
:104590001092F70208959091F602892B8093F6020B
:1045A000089580959091F60289238093F6020895EC
:1045B0001092F60208959091F502892B8093F502EE
:1045C000089580959091F50289238093F5020895CE
:1045D0001092F50208958091D402089508950C94E4
:1045E000EE220C94EF229091D402981721F0809340
:1045F000D4020C94F12208958091D402882329F0EA
:104600001092D40280E00C94F1220895E0911801F8
:10461000F09119018091F7028083E0911801F091E7
:10462000190190818091F602892B8083E091180115
:10463000F091190190818091F502892B80838091FE
:10464000D402882381F0E0911801F0911901908142
:10465000892B808380911801909119010E94352443
:1046600081110E94FC2280911801909119010C94F3
:104670007F160C94EE2298E0899F90011124262B3E
:104680002093D3020E943D218091D3028595859588
:1046900085950C9439231092D30280E00C94392331
:1046A0002091D302809582238093D302982F977014
:1046B00079F430E0482F082E000C550B24173507ED
:1046C00039F08595859585950E945E210C944B2344
:1046D0000895CF92DF92EF92FF926C01EE24FF24B7
:1046E000C114D104E104F10421F0C701B60120E1B5
:1046F00001C020E0C72ED82EE92EFF24C114D1041A
:10470000E104F10419F0285FC701B6016B017C01D7
:1047100054E0F694E794D794C7945A95D1F7C1140E
:10472000D104E104F10419F02C5FC701B6016B015B
:104730007C0142E0F694E794D794C7944A95D1F768
:10474000C114D104E104F10419F02E5FC701B601D0
:10475000DC01CB01B695A79597958795892B8A2B78
:104760008B2B09F02F5F822FFF90EF90DF90CF907F
:10477000089580E090E00E94A13221E08D3E9E4F9E
:1047800009F020E0822F089582E090E00C949332AB
:1047900083E090E00C94933284E090E00C949332A8
:1047A000682F84E090E00C94A732AB01BC018FE04D
:1047B00090E00C94B932AB01BC0183E190E00C9421
:1047C000B93260E070E0CB010C94DB2360E070E074
:1047D000CB010E94D5230C94E1236DEE7EEF80E0A7
:1047E00090E00E94C53260E082E090E00E94A73233
:1047F00060E083E090E00E94A7321092CF02109216
:10480000D0021092D1021092D20260E084E090E0D7
:104810000E94A73260E085E090E00E94A73260E04D
:1048200086E090E00E94A7326FEF87E090E00E9460
:10483000A73240E050E0BA0188E090E00E94B9322F
:1048400060E08DE090E00E94A73240E050E0BA01C5
:1048500088E190E00E94B93260E087E190E00E9438
:10486000A7320C94E6230C94ED23FC013296809140
:104870002901882331F08091760387FF02C09EE1F1
:1048800001C096E080E0915028F021912223D9F3D5
:104890008F5FF9CF08959C01FC0132969FEF80E075
:1048A0004191461789F09F3F19F4411101C0982F9B
:1048B0008F5F8630A9F79F3F39F0F901E90FF11DAD
:1048C00097FDFA956283089508959C012A5F3F4FF2
:1048D000FC014281461301C01282019682179307A0
:1048E000B9F70895262F2695269526952E3168F43A
:1048F000FC01E20FF11D677021E030E001C0220FE2
:104900006A95EAF78281282B22830895262F26951F
:10491000269526952E3170F4FC01E20FF11D67708B
:1049200021E030E001C0220F6A95EAF720958281EC
:1049300028232283089520912901222329F0209100
:10494000760327FD0C9472240C944B2420912901AA
:10495000222329F02091760327FD0C9486240C94C1
:10496000652420912901FC013296222331F08091A7
:10497000760387FF02C08EE101C086E0DF011D9251
:104980008A95E9F7089508950C94C324CF930E9463
:1049900087050E949A050E94C424C0E08C2F0E94C3
:1049A000F605811104C0CF5FCE30C1F701C081E0B0
:1049B000CF9108950C94C3240C94DA240E94DC2433
:1049C00080917C03843049F11092F90220E488E15F
:1049D00090E00FB6F894A895809360000FBE2093E6
:1049E000600080E00E9482080E94DC2483B7817FFF
:1049F000846083BF83B7816083BF7894889583B7D1
:104A00008E7F83BF0FB6F894A8958091600088616F
:104A100080936000109260000FBE08950C94C32430
:104A20000E94D01C0E9473160E9482080C940E25CE
:104A30001F920F920FB60F9211248F939F93AF93F3
:104A4000BF938091F902811113C0809172039091FC
:104A50007303A0917403B09175034196A11DB11D1C
:104A60008093720390937303A0937403B0937503C0
:104A7000BF91AF919F918F910F900FBE0F901F909C
:104A8000189582E084BD93E095BD9AEF97BD809321
:104A90006E0008952FB7F89480917203909173037C
:104AA000A0917403B09175032FBF0895CF92DF9248
:104AB000EF92FF920F931F932FB7F89440917203D8
:104AC0005091730360917403709175032FBF6A0155
:104AD0007B01EE24FF248C0120E030E0C016D106DB
:104AE000E206F30610F4415051099A01281B390BD4
:104AF000C9011F910F91FF90EF90DF90CF90089523
:104B000078941F920F920FB60F9211248F939F9358
:104B1000AF93BF938091720390917303A09174033C
:104B2000B09175030196A11DB11D809372039093FE
:104B30007303A0937403B0937503BF91AF919F91DA
:104B40008F910F900FBE0F901F901895F89481E0F1
:104B50008093E00080E28093D800E9ECF0E01082DE
:104B60008FE19EE40197F1F700C000001DBA10929A
:104B700068001CBC10BE1FBA10927A0010926E0022
:104B800010926F0010927100109272001082ECEB84
:104B9000F0E0108214B817B81AB81DB810BA108215
:104BA00015B818B81BB81EB811BA0C94003F089578
:104BB0000E94B923811102C00E9433240E94C423A1
:104BC0008093F8020E94CC2390E090937703809327
:104BD00076030E94C823682F70E080E090E00C9478
:104BE000DD208091FE0280FF0BC060911D0185E0F9
:104BF000689FB001112475956795759567952BC0D1
:104C000081FF09C060911D0185E0689FB0011124FA
:104C10007595679520C082FF07C060911D0185E0F2
:104C2000689FB001112417C09091FD029923D1F023
:104C300060911C01961788F720911D0185E0289F3F
:104C400090011124929FA001939F500D112470E0B8
:104C5000CA010E944B316038710540F4611571053D
:104C600019F406C065E070E0862F08958FE7089577
:104C700081E008958091FE0280FF08C060911B01D1
:104C800070E0759567957595679521C081FF06C0A1
:104C900060911B0170E07595679519C082FF04C093
:104CA00060911B0170E010C09091FD02992399F072
:104CB00060911A019617A0F780911B01899FC0018E
:104CC000112470E00E944B316038710540F4611589
:104CD000710519F406C061E070E0862F08958FE732
:104CE000089581E00895803F21F40E94F125819587
:104CF00004C0813F29F40E94F125809302030895A6
:104D0000823F21F40E94F125819504C0833F29F45C
:104D10000E94F125809301030895893F19F40E94B0
:104D20003A2605C08A3F31F40E943A268195809345
:104D3000030308958B3F21F40E943A26819504C015
:104D40008C3F29F40E943A26809304030895843FFF
:104D500021F480910003816017C0853F21F4809188
:104D60000003826011C0863F21F4809100038460BB
:104D70000BC0873F21F480910003886005C0883F05
:104D800031F48091000380618093000308958D3F8A
:104D900021F48091FE0281600BC08E3F21F480914E
:104DA000FE02826005C08F3F29F48091FE0284607C
:104DB0008093FE020895803F39F48091020387FFBB
:104DC0006CC01092020369C0813F29F480910203F4
:104DD0001816BCF362C090910103823F29F497FF3B
:104DE0005CC01092010359C0833F19F41916CCF32B
:104DF00054C0893F41F48091030318160CF04DC054
:104E0000109203034AC08A3F29F48091030387FF6D
:104E100044C0F6CF8B3F39F48091040387FF3DC037
:104E2000109204033AC08C3F29F4809104031816B1
:104E3000BCF333C0843F21F4809100038E7F17C000
:104E4000853F21F4809100038D7F11C0863F21F4BE
:104E5000809100038B7F0BC0873F21F4809100037A
:104E6000877F05C0883F31F4809100038F7E809357
:104E7000000313C08D3F21F48091FE028E7F0BC092
:104E80008E3F21F48091FE028D7F05C08F3F29F473
:104E90008091FE028B7F8093FE028091010381113D
:104EA0000EC08091020381110AC080910303811119
:104EB00006C080910403811102C01092FD02089582
:104EC0008FEF92E00E9499160E944A259093FC026F
:104ED0008093FB0208951F93CF93DF938091FB0291
:104EE0009091FC020E945625AC019091FD029923FD
:104EF00021F020911E0130E006C02091FA028AE0E4
:104F0000289F900111244217530708F47BC0809119
:104F10000103C0910203D091030310910403811196
:104F200007C0C1116BC0D11169C0111167C06AC03F
:104F30009F3F19F09F5F9093FD02181624F40E9482
:104F4000F125809301038091010387FF05C00E9432
:104F5000F1258195809301031C1624F40E94F1250C
:104F6000809302038091020387FF05C00E94F12510
:104F7000819580930203309101033323E1F0209166
:104F800002032223C1F045EB3403C001112499230D
:104F900019F09093010303C081E08093010335EB86
:104FA0002303C0011124992319F09093020303C035
:104FB00081E0809302031D1624F40E943A26809318
:104FC00003038091030387FF05C00E943A26819561
:104FD00080930303111624F40E943A26809304035D
:104FE0008091040387FF05C00E943A268195809333
:104FF0000403DF91CF911F910C9460279F3F09F02C
:1050000099CFAACFDF91CF911F910895EFEFF2E0F2
:1050100086E0DF011D928A95E9F71092FD02109259
:10502000FE020895833081F128F4813059F08230F6
:10503000D1F00895853009F449C0B8F1863009F4FB
:1050400056C008958091FA02262F30E0280F311DB6
:105050002F3F310524F4680F6093FA0208958FEF13
:105060008093FA02089580911E01262F30E0280FC8
:10507000311D2F3F310524F4680F60931E01089500
:105080008FEF80931E01089580911D01262F30E03F
:10509000280F311D2F3F310524F4680F60931D0147
:1050A00008958FEF80931D01089580911C01262F94
:1050B00030E0280F311D2F3F310524F4680F609335
:1050C0001C0108958FEF80931C01089580911B01AE
:1050D000262F30E0280F311D2F3F310524F4680FB3
:1050E00060931B0108958FEF80931B0108958091B9
:1050F0001A01262F30E0280F311D2F3F310524F4EF
:10510000680F60931A0108958FEF80931A01089534
:10511000833011F128F4813049F0823091F0089504
:10512000853081F120F18630C1F108958091FA0235
:10513000681720F4861B8093FA0208951092FA02F1
:10514000089580911E01681720F4861B80931E012C
:10515000089510921E01089580911D01681720F492
:10516000861B80931D01089510921D010895809162
:105170001C01681720F4861B80931C01089510926F
:105180001C01089580911B01681720F4861B8093F1
:105190001B01089510921B01089580911A01681750
:1051A00020F4861B80931A01089510921A01089525
:1051B0000F931F9341E050E060E070E08A019B0193
:1051C00004C0000F111F221F331F8A95D2F7C90197
:1051D000B8010E94DD201F910F910C94D01C482F24
:1051E00050E0FA013597EF33F10508F06BC0E65552
:1051F000FF4F0C945F310E94332460C08091F8020D
:10520000817F8E7F8093F80281E08093060308956A
:105210000E94D01C2FEF83ED90E3215080409040FE
:10522000E1F700C000000E94A62548C08091F80266
:10523000982F9095917090FB80F98093F8029111CE
:105240003DC0897F877F10C08091F80281FB2227B3
:1052500020F991E0922790FB81F98093F80299233D
:1052600069F18091F80281608093F80227C08091F3
:10527000F80282FB222720F991E0922790FB82F925
:10528000ECCF8091F80283FB222720F991E092274E
:1052900090FB83F9E2CF0E94D01C8091760387FBBC
:1052A000222720F991E0922790FB87F980937603DB
:1052B00005C0895301C08D510E94D82881E008950E
:1052C00080E0FACF80E0089580E008950C9464298E
:1052D0008E518A3030F4E82FF0E0E950FE4F8081A3
:1052E000089580E00895CF93C82F80910603813000
:1052F00071F018F08230E1F184C00E94B522813152
:1053000051F00E94B522823209F07DC004C00E9493
:10531000B522813149F48C2F0E946629811109C080
:105320008C2F0E94EF2822C00E94B522823221F4E5
:10533000F2CF81E090E01AC08C2F0E946429811185
:1053400014C0C43179F048F4CB3079F0C03109F0A1
:105350005EC082E08093060308C0C93219F0C833EA
:1053600021F055C01092060352C081E0817051C0F7
:10537000C93279F108F5C43161F1A0F4C73009F000
:1053800044C01092FA0284E180931E01C0931D0173
:105390008CE380931C0188E080931B0188E280935A
:1053A0001A0133C082EE8C0F863078F58C2F0E9464
:1053B00068298093050329C0CE34E9F020F4CB346A
:1053C00021F56AE013C0C13579F0C235F1F461E02E
:1053D0000DC080910503882319F01092050315C0B4
:1053E00081E08093060315C061E006C0809105034B
:1053F0000E9412280AC06AE0809105030E94882852
:1054000004C01092060380E004C081E002C080E086
:10541000ADCFCF9108958091270308950F931F93E7
:10542000CF93DF9300D01F92CDB7DEB78C010E94DF
:105430007C2C823011F0843021F584E089831B8339
:105440000A8382E08093E9008FEF9091E800815019
:1054500095FD06C095ED9A95F1F700008111F5CF05
:105460008091E80085FF0DC040E050E063E070E00F
:10547000CE0101960E94992C8091E8008E7780934E
:10548000E8000F900F900F90DF91CF911F910F9137
:105490000895CF93DF9300D01F92CDB7DEB7209150
:1054A0007C03243031F523E02983805891099B83C4
:1054B0008A8382E08093E9008FEF9091E800815029
:1054C00095FD06C095ED9A95F1F700008111F5CF95
:1054D0008091E80085FF0DC040E050E063E070E09F
:1054E000CE0101960E94992C8091E8008E778093DE
:1054F000E8000F900F900F90DF91CF910895CF9318
:10550000DF93EC010E947C2C823011F08430F9F49E
:1055100082E08093E9008FEF9091E800815095FD43
:1055200006C095ED9A95F1F700008111F5CF8091B5
:10553000E80085FF0CC040E050E066E070E0CE017E
:105540000E94992C8091E8008E778093E800DF918B
:10555000CF910895CF93DF93EC010E947C2C823091
:1055600011F08430D9F580912901882339F0809198
:10557000760387FF03C060E282E002C068E081E05A
:105580008093E9008FEF9091E800815095FD06C06F
:1055900095ED9A95F1F700008111F5CF8091E80023
:1055A00085FF1CC080912901811105C040E050E0B9
:1055B00068E070E003C070E040E050E0CE010E947F
:1055C000992C8091E8008E778093E80080E2FE01BC
:1055D000A7E0B3E001900D928A95E1F7DF91CF91BA
:1055E000089580917B03811109C00E942A2E0E9498
:1055F000872E8091E20084608093E20008951092EB
:105600007B030895089508950C94102542E061EC01
:1056100081E00E94A32D42E261EC82E00C94A32D74
:1056200080917E03833009F460C030F4813071F0E2
:10563000823009F499C008958A3009F485C08B300E
:1056400009F46BC0893009F0A7C020C080917D03A8
:10565000813A09F0A1C08091E800877F8093E8003B
:105660008091810390918203892B21F460E287E08D
:1056700093E003C060E080E090E070E00E94E42CE2
:105680008091E8008B778093E800089580917D03F6
:10569000813209F081C08091810390918203029749
:1056A00008F07AC08091E800877F8093E8008091BD
:1056B000E80082FD05C080917C038111F8CF6CC0A9
:1056C0002091F3008091F20090E0922B029729F450
:1056D0008091F1008B7F813021F48091F1008093E3
:1056E00027038091E8008B7753C080917D03813A36
:1056F00009F052C08091810390918203892B09F0B7
:105700004BC08091E800877F8093E8008091E8009B
:1057100080FFFCCF8091290136C080917D038132CA
:10572000D9F58091810390918203892BA9F580910D
:10573000E800877F8093E8000E94D82D80917F0346
:10574000809329010C94D01C80917D03813221F536
:105750008091E800877F8093E8000E94D82D809197
:10576000800380932803089580917D03813AA1F4FA
:105770008091E800877F8093E8008091E80080FFB7
:10578000FCCF809128038093F1008091E8008E7710
:105790008093E8000C94D82D089584B7877F84BF48
:1057A0000FB6F894A895809160008861809360009E
:1057B000109260000FBE80E880936100109261003B
:1057C0000E94E3160E942A2E0E94872E8091E200FA
:1057D00084608093E20078940E941C310E94EB1652
:1057E0008FE191E00E946E1680917C03853069F410
:1057F0000E94DE2480917A038823B1F30E94C6249C
:10580000882391F30E94832CEFCF0E94F5160E940B
:10581000A313EACF0C940C2C292F33272330310506
:10582000C9F060F42130310581F02230310509F0F2
:105830004AC08BE390E026ED37E049C021323105C4
:1058400011F12232310579F13EC082E190E021E18F
:1058500038E03DC099278130910561F040F08230F9
:10586000910559F0039779F5ECE9F7E008C0E2ED0E
:10587000F7E005C0EAEBF7E002C0E2EAF7E0849166
:1058800090E09F0124C06115710541F06130710500
:10589000D1F489E090E021E038E019C089E090E09F
:1058A00028EE37E014C06115710541F061307105D3
:1058B00051F480EC90E023E238E009C080E490E00D
:1058C00023EE38E004C080E090E020E030E0FA0110
:1058D0003183208308950895CF93C82F0E946B2CA5
:1058E000C0932903CF91089580917C03843011F0F7
:1058F00081E0089582E0089580912903811102C01A
:105900000C94742C089580E189BD82E189BD09B4AD
:1059100000FEFDCF8091D8008F7D8093D8008091CC
:10592000E00082608093E0008091E00081FDFCCF88
:105930000895CF92DF92EF92FF920F931F93CF9330
:10594000DF93EC018B017A010E94F72D811133C0A6
:10595000E114F10439F0F70180819181081B190BE2
:10596000C80FD91FC12CD12C0115110519F1809137
:10597000E80085FD16C08091E8008E778093E800EE
:10598000E114F10449F0F70180819181C80ED91E1C
:10599000D182C08285E00FC00E94F72D882321F3B9
:1059A0000AC089918093F10001501109FFEFCF1ACD
:1059B000DF0ADACF80E0DF91CF911F910F91FF9046
:1059C000EF90DF90CF90089520918303309184036E
:1059D0002617370748F06115710539F42091E80062
:1059E0002E772093E80001C0B901FC0120E0611589
:1059F000710579F180917C038823F1F18530F1F113
:105A00008091E80083FD3CC08091E80082FD2EC0BB
:105A10008091E80080FFEBCF2091F3008091F200AD
:105A200090E0922B6115710551F08830910538F4A2
:105A300021912093F100615071090196F3CF21E08B
:105A4000089709F020E08091E8008E778093E800C5
:105A5000CECF2111CFCF0AC080917C03882361F083
:105A6000853061F08091E80083FD0AC08091E800F4
:105A700082FFF2CF80E0089582E0089583E00895E8
:105A800081E008952091830330918403261737071E
:105A900048F06115710539F42091E8002E772093C4
:105AA000E80001C0B901FC0120E06115710591F128
:105AB00080917C03882309F440C0853009F43FC0FD
:105AC0008091E80083FD3DC08091E80082FD2FC0F9
:105AD0008091E80080FFE9CF2091F3008091F200EF
