:100000000C946B040C9488040C9488040C9488045D
:100010000C9488040C9488040C9488040C94880430
:100020000C9488040C9488040C94F52F0C94C7301D
:100030000C9469260C9488040C9488040C9488040D
:100040000C9488040C9488040C9488040C94880400
:100050000C9488040C94D1260C9488040C94880485
:100060000C9488040C9488040C9488040C948804E0
:100070000C9488040C9488040C9488040C948804D0
:100080000C9488040C9488040C9488040C948804C0
:100090000C9488040C9488040C9488040C948804B0
:1000A0000C9488040C9488040C948804DE04E10405
:1000B000E404E704EA04ED04F0042C072F073407F6
:1000C0003E07320737073C073A072B1B2B1B5D1BEC
:1000D0005D1BA31BC11B121D701D031C981CA91CBA
:1000E000A91C091D701D701D6A1DF61DF61D081E38
:1000F000081EFF1D081E081E081EF61DF61D041E04
:10010000081E081E041E582A4E2A662AAE2AB22A43
:10011000B22AAE2AB22AB22A872AB22A912A9B2A66
:10012000B22AB22AB22AB22AAE2AB22AB22AAE2AF7
:10013000B22A742AB22AB22AAB2AAB2AAB2AAB2A39
:10014000AB2AAB2AAB2AAB2AAB2AB02AB22A582A4E
:100150004B2AB22AB22AB22AB22AB22AB22AB22A26
:10016000B22AB22AB22AB02AB22AB22AAE2AB22AB5
:10017000A92AA92AA92AA92AA92AA92AA92AA92AE7
:10018000A92AB02A34315B3153325B315332A73163
:10019000CA315332213230326572676F646F785FD3
:1001A000657A2F61766F6361646F204020302E3650
:1001B0002E3435372D332D67666237633635002987
:1001C000002B00E000E100354100001E0014000497
:1001D000001D0029004D001F001A0016001B00E33F
:1001E000002A002000080007000600E3002C002180
:1001F00000150009001900E2004A00220017000A59
:1002000000050000004C0022022F0000003000001A
:100210000001533500250200002E000000E20023FB
:10022000001C000B00110000002961240018000DC3
:100230000010002C014B0025000C000E0036005071
:10024000002800260012000F0037005100E50027AB
:100250000013003300380052004E002D00310034EE
:1002600000E4004F000000FF5C010001000100FEFF
:100270005C00003A001E0220022202010001003B45
:10028000001F022102230201007D003C002F0226F4
:10029000022F0001007C003D0030022702300001E7
:1002A0000001003E0031023500350200000100016E
:1002B0000001000000010000000100010001000039
:1002C000000100000001003F004B0050002402002C
:1002D00000010040004A00510046000100010041B9
:1002E000004E00520047003700010042004D004F11
:1002F00000480027000100430025022E0231002E95
:10030000000100440045000100010001000000015F
:1003100000010001000100010000000100010001D6
:100320000001000100010001000100F200010001D4
:100330000001000100F000F1000100F400010001E3
:10034000000100F3000100F50001000100010001BF
:100350000001000000010001000100000001000098
:100360000001000100010000000100000001000187
:100370000001000100010000000100010001000176
:10038000000100A9000100010001000100AC00AA69
:1003900000B600010001000100AB00A8000100014F
:1003A000000100010001000100010001000100AE98
:1003B0000001000100000000000000000000002A11
:1003C0002B280000000000000000000000000000DA
:1003D000000029000000002C1E3420212224342695
:1003E00027252E362D3738271E1F2021222324258E
:1003F000263333362E37381F0405060708090A0B43
:100400000C0D0E0F101112131415161718191A1BB4
:100410001C1D2F3130232D350405060708090A0B52
:100420000C0D0E0F101112131415161718191A1B94
:100430001C1D2F3130354C00000000000000000072
:1004400000000000000000000000000000000000AC
:10045000000000000000000000000000000000009C
:10046000000000000000000000000000000000008C
:10047000000000000000000000000000000000007C
:10048000000000000000000000000000000000006C
:10049000000000000000000000000000000000005C
:1004A000000000000000000000000000000000004C
:1004B000000000000000000000000000000000003C
:1004C000000000000000000000000000000000002C
:1004D0000000000000000000010101010101000115
:1004E0000101010000000000000000000000000009
:1004F00000010001000101010101010101010101EF
:1005000001010101010101010101010101010101DB
:1005100001010000000101000000000000000000D7
:1005200000000000000000000000000000000000CB
:100530000000010101010000047F3F1F64321464C8
:100540003214783C1E1E140A052223252628292A47
:100550002C2D2F3032333536383A3B3D3E40424326
:100560004547494A4C4E5051535557595A5C5E6065
:1005700062646668696B6D6F71737577797B7D7F77
:1005800081838587898A8C8E90929496989A9C9E76
:100590009FA1A3A5A7A8AAACAEAFB1B3B4B6B8B992
:1005A000BBBCBEBFC1C2C3C5C6C7C9CACBCCCDCEFA
:1005B000D0D1D2D2D3D4D5D6D7D7D8D9D9DADADBDD
:1005C000DBDBDCDCDCDCDCDDDDDDDDDCDCDCDCDC69
:1005D000DBDBDBDADAD9D9D8D7D7D6D5D4D3D2D2A8
:1005E000D1D0CECDCCCBCAC9C7C6C5C3C2C1BFBE90
:1005F000BCBBB9B8B6B4B3B1AFAEACAAA8A7A5A3FB
:10060000A19F9E9C9A98969492908E8C8A898785B9
:1006100083817F7D7B79777573716F6D6B69686698
:100620006462605E5C5A5957555351504E4C4A496A
:1006300047454342403E3D3B3A3836353332302F12
:100640002D2C2A292826252322FFAA7F5540000089
:100650000000000000000000010101010101010192
:100660000102020202020202020303030303030364
:100670000404040404050505050506060606060728
:10068000070707080808080909090A0A0A0B0B0BDB
:100690000C0C0C0D0D0D0E0E0E0F0F101010111175
:1006A00012121313141415151616171718181919F2
:1006B0001A1A1B1C1C1D1D1E1F1F20212122232353
:1006C00024252526272828292A2B2C2C2D2E2F308F
:1006D000313132333435363738393A3B3C3D3E3FA1
:1006E000404142434445464748494B4C4D4E4F508C
:1006F000525354555758595A5C5D5E606163646546
:1007000067686A6B6C6E6F7172747677797A7C7DCC
:100710007F8182848687898B8D8E9092949597991C
:100720009B9D9FA1A2A4A6A8AAACAEB0B2B4B6B934
:10073000BBBDBFC1C3C5C8CACCCED0D3D5D7DADC08
:10074000DEE1E3E6E8EAEDEFF2F4F7F9FCFF04039B
:100750003000000016034500720067006F0044007F
:100760006F007800200045005A0000001603450085
:10077000720067006F0044006F00780020004500A1
:100780005A0000000403090409023B00020100A012
:10079000FA0904000001030101000921110100010F
:1007A0002240000705810308000A09040100010333
:1007B00000000009211101000122C0000705820389
:1007C00020000A1201100100000008EDFE071301CD
:1007D000000102030105010902A10185020901A12D
:1007E00000050919012905150025019505750181E7
:1007F0000295017503810105010930093115812533
:100800007F95027508810609381581257F95017548
:10081000088106050C0A38021581257F95017508A7
:100820008106C0C005010980A101850316010026CB
:1008300003001A81002A8300751095018100C0050C
:100840000C0901A1018504160100269C021A010071
:100850002A9C02751095018100C005010906A101BD
:100860008505050719E029E715002501950875019B
:100870008102050819012905950575019102950167
:10088000750391010507190029EF1500250195F061
:1008900075018102C005010906A101050719E029BA
:1008A000E7150025019508750181029501750881FC
:1008B0000105081901290595057501910295017534
:1008C0000391010507190029FF150026FF00950671
:1008D00075088100C00011241FBECFEFDAE0DEBF33
:1008E000CDBF12E0A0E0B1E0EAE5F8E602C0059075
:1008F0000D92A230B107D9F723E0A2E0B2E001C027
:100900001D92AF38B207E1F70E941D2D0C942B34D5
:100910000C94000080B38C7080BB81B3836F81BB6B
:10092000089584B1807F84B985B1807F85B98AB10B
:10093000837F8AB98BB1837F8BB93E98469808959F
:10094000CF93E82F873080F58091060190910701C1
:10095000892B09F047C0CE2F64E670E080E40E9446
:10096000D5169093070180930601892BD1F464E694
:1009700070E082E10E942C1790930701809306019A
:10098000892B79F481E090E001C0880FCA95EAF7DD
:1009900064E670E080950E942C1790930701809385
:1009A0000601CF910C94811790E0FC013797E73056
:1009B000F105C0F4EA5AFF4F0C94AF32209A289800
:1009C00011C0219A29980EC0229A2A980BC0239A06
:1009D0002B9808C0529A5A9805C0539A5B9802C047
:1009E0003E9A4698CF910895CF93873008F03FC044
:1009F0008091060190910701892B09F041C064E6BE
:100A000070E080E40E94D516909307018093060160
:100A1000892B11F0C0E027C064E670E083E10E94FA
:100A20002C179093070180930601892B99F764E6B0
:100A300070E081E40E94D51690930701809306012F
:100A4000892B41F784E690E00E945C1797FF05C070
:100A50009093070180930601DDCFC82FC0951092B7
:100A60000701109206010E9481178C2F0AC09FB1C6
:100A70008FB1807F869586959370892B809501C074
:100A800080E0CF91089508950C9443050E94640678
:100A900090E090930701809306010E9491040E94C8
:100AA0008A04E3E0F2E0A1E1B2E011921D9282E05B
:100AB000E131F807D1F78EE00E94270E0C947608FA
:100AC0000E94640690E090930701809306010E94C3
:100AD00091040E948A04E3E0F2E0119282E0E131A5
:100AE000F807D9F70895EF92FF920F931F93CF93D2
:100AF000DF938091060190910701892B91F08091FD
:100B000002028F5F8093020281110BC00E94640673
:100B100090E09093070180930601892B11F40E94C5
:100B2000D60501E112E0C0E0F12C87E0E82EEC0EE2
:100B30008C2F0E94A0048E2D0E94A0048C2F0E9456
:100B4000F404F8019081891719F08083D1E001C085
:100B5000D0E08E2D0E94F404F8019781891719F0D6
:100B6000878381E001C080E0D82BFD2A0E94910498
:100B7000CF5F0F5F1F4FC730C1F62F2D4EE063E0F0
:100B800072E081E192E00E94990E0E94800881E06B
:100B9000DF91CF911F910F91FF90EF900895E82F73
:100BA000F0E0ED5FFD4F80810895089556985E98BE
:100BB00025982D9826982E9827982F988FEF90E0BB
:100BC000909389008093880090938B0080938A0093
:100BD00090938D0080938C00259A2D9A2FEF80E7BB
:100BE00092E0215080409040E1F700C00000269A3A
:100BF0002E9A2FEF80E792E0215080409040E1F75D
:100C000000C00000279A2F9A2FEF80E792E0215032
:100C100080409040E1F700C0000025982D982FEF0C
:100C200080E792E0215080409040E1F700C0000052
:100C300026982E982FEF80E792E021508040904038
:100C4000E1F700C0000027982F9856985E982598E5
:100C50002D9826982E9827982F98089589EA8093A2
:100C6000800089E08093810024982C983F988AB175
:100C70008F7C8AB96E98479A8BB180638BB9769ACC
:100C80000E94FE2460932C0370932D0380932E0307
:100C900090932F0367708FEF689FB00111247595B3
:100CA000679575956795772770938900609388009D
:100CB00070938B0060938A0070938D0060938C001A
:100CC0000E94D6050C94120780E290E090930701F1
:100CD0008093060180911F0281110EC00E94CF16E1
:100CE00081E080931F022FEF83ED90E3215080403D
:100CF0009040E1F700C0000064E670E080E40E94EC
:100D0000D5169093070180930601892B09F04EC0F8
:100D100064E670E080E00E942C17909307018093B6
:100D20000601892B09F042C064E670E080E00E9471
:100D30002C179093070180930601892BB9F564E67F
:100D400070E08FE30E942C179093070180930601B7
:100D5000892B61F50E94811764E670E080E40E94AF
:100D6000D5169093070180930601892BF9F464E668
:100D700070E08CE00E942C1790930701809306018D
:100D8000892BA1F464E670E080E00E942C17909318
:100D9000070180930601892B49F464E670E08FE334
:100DA0000E942C1790930701809306010E948117DF
:100DB00080910601089510922C0310922D03109239
:100DC0002E0310922F0384E0806180932C036091A6
:100DD0002C0370912D0380912E0390912F030E947C
:100DE00002250C940E259C01FB0182818823C1F011
:100DF0002F3FFCE53F0751F021159DE5390759F0DC
:100E00002E3F3C4571F40E946A2508C088E991E0B4
:100E10000E94730803C081E00E94621480E008957C
:100E200081E008950895CF92DF92EF92FF926B01D7
:100E30007C0156985E9825982D9826982E9827988C
:100E40002F980E947D2490E088309105C8F4FC0121
:100E5000E35AFF4F0C94AF320E94771411C0259AC9
:100E60002D9A0EC0259A2D9A269A2E9A09C0259A57
:100E70002D9A04C0259A2D9A269A2E9A279A2F9A4F
:100E8000C701B601FF90EF90DF90CF9008950F93C8
:100E90001F93CF93DF939C013A9521153F4148F56D
:100EA000EB018C0190FF03C080EEFB01099511FF5F
:100EB00003C081EEFE01099512FF03C082EEFE0120
:100EC000099513FF03C083EEFE010995011510413A
:100ED00080F084EEFE01099585EEFE01099586EE0F
:100EE000FE01099587EEFE01DF91CF911F910F91D1
:100EF0000994DF91CF911F910F910895877091E030
:100F000001C0990F8A95EAF7892F0E94DF230C947C
:100F10001A240C947E07877091E001C0990F8A957E
:100F2000EAF7892F0E94E5230C941A240C948B076E
:100F3000CF93DF93EC01805E9109089710F0209722
:100F400019F46EE777E002C069E877E0CE010E940D
:100F500047078C2FDF91CF910C944619CF93DF93E5
:100F6000EC010E94701ACE01805E9109089710F082
:100F7000209719F46BE877E002C066E977E0CE01CC
:100F8000DF91CF910C944707CF93DF93EC010E9440
:100F90009807CE01DF91CF910C94AE0781E00895C0
:100FA0000C94F3061F93CF93DF9300D000D01F92D1
:100FB000CDB7DEB749835A836B832091590289816B
:100FC0009A81211112C0662349F00E944823182FEC
:100FD000682F89819A810E94EF2203C00E941B23FF
:100FE000182F69817A81812F04C00E94482369816A
:100FF0007A810F900F900F900F900F90DF91CF910B
:101000001F910C946E0BFC014081518162817381B0
:1010100084810C94D2071F93CF93DF9390E0FC015F
:10102000E954FC4F1491FC01E954FB4FD491FC01AD
:10103000E95CFB4FC491DD2319F081EE0E94461953
:10104000CC2319F086EE0E944619812F0E94D81AEF
:10105000CC2319F086EE0E94701ADD2331F081EE68
:10106000DF91CF911F910C94701ADF91CF911F9156
:1010700008950F931F93CF93DF93EC01062FFE018A
:101080008491882359F19E012F5F3F4F813041F4B5
:10109000E901F9011491812F0E944619812F0DC099
:1010A000823031F4E901F90184910E9446190AC0A5
:1010B000833031F4E901F90184910E94701A02C071
:1010C0000E940B082196802F8823C9F2EFE9FFE0E8
:1010D0003197F1F700C000008150F6CFDF91CF913A
:1010E0001F910F91089560E00C9439080E94CD245F
:1010F000811102C00E946A250E94EA0E0C942E06FD
:101100000C944405282F2F7041F0822F90E02A3054
:1011100010F44D9608950697089587E290E008959B
:1011200008950C9490080C94910808950E94E41D71
:101130000E9495082FEF84E39CE02150804090406E
:10114000E1F700C000000C94F7260F931F93CF9394
:10115000DF938C010E940308EC01B8010E94D007C4
:10116000882309F4B1C2B801CE010E945E0F882322
:1011700009F4AAC2B801CE010E948E16882309F490
:10118000A3C2CB3CFCE5DF0741F4F8018281882350
:1011900009F49AC20E947B1097C2CC3C8CE5D80718
:1011A00008F0CDC1C33C9CE5D90761F4F801828108
:1011B000882309F489C20E94C9238272F1F00E9437
:1011C0005F1482C2C43CECE5DE07D0F0F8018281F6
:1011D000C73CFCE5DF0709F487C108F097C1C53CAF
:1011E000ECE5DE0709F486C108F08AC1882309F41A
:1011F0006BC20E94C923827211F30E94521464C20E
:10120000C631FCE5DF0708F038C1C2308CE5D807ED
:1012100008F40FC1F8018281882309F411C10E94EA
:10122000CD24811102C00E946A250E94E02490937F
:101230007D0380937C03CF30FCE5DF0709F4CDC04C
:1012400008F042C0C8309CE5D90709F4A8C0F0F402
:10125000C430FCE5DF0709F490C068F4C2309CE5B7
:10126000D90709F486C0C330DC4509F0D9C08091A4
:101270007C038260D3C0C630FCE5DF0709F487C079
:1012800008F089C080917C038860C8C0CB309CE5A1
:10129000D90709F493C068F4C930FCE5DF0709F405
:1012A00082C0CA30DC4509F0BBC080917C038860F5
:1012B0007EC0CD309CE5D90709F484C008F085C014
:1012C00080917C038D7FAAC0C73FFCE5DF0709F44E
:1012D00057C050F5C2319CE5D90709F486C068F4BF
:1012E000C031FCE5DF0709F47CC0C131DC4509F001
:1012F00097C080917C038F7B91C0C4319CE5D90756
:1013000009F483C008F475C0C531DC4509F088C014
:1013100080917C0382FB222720F991E0922790FBA9
:1013200082F990FB83F97AC0CA3F8CE5D80709F4AB
:1013300050C058F4C83FECE5DE0729F1C93FDC4551
:1013400009F06EC080917D035CC0CC3F8CE5D8076E
:1013500009F454C070F1CD3FDC4509F061C08091C3
:101360007D03982F909591708E7F892B90FB81F94A
:1013700049C080917C03816051C080917C0317C07B
:1013800080917D0319C080917D0382603BC0809174
:101390007C03806143C080917C0380623FC0809168
:1013A0007C0380643BC080917C03806837C084608C
:1013B00035C080917D038260816024C080917C0370
:1013C0008E7F2CC080917C0317C080917C03877F27
:1013D00025C080917D038D7F15C080917C038F7E19
:1013E0001DC080917C038F7D19C080917C038F7715
:1013F00015C080917C03877F8B7F10C080917D0317
:101400008D7F8E7F80937D030BC080917C0387FB53
:10141000222720F991E0922790FB87F980937C03A3
:1014200080917C0390917D030E94F1240E94E41D31
:101430004BC1C1159CE5D90751F0C130DC4579F0AD
:10144000C801DF91CF911F910F910C94CE07F80145
:101450008281882309F438C10E94960835C1F801B9
:101460008281882309F430C18091F802982F9095E9
:1014700090FB80F98093F80227C1C631FCE5DF07B5
:1014800039F50E94C923982FF80182812091180113
:1014900030911901882379F09A7A81E009F480E08B
:1014A00080932002911102C069E201C065E3C90185
:1014B0000E94D2250AC080912002811102C069E2F7
:1014C00001C065E3C9010E94DD250E941A24FCC009
:1014D000C23CDC4509F0B4CFF8018281882309F4CD
:1014E000F3C00E946D14F0C0882309F4EDC00E947F
:1014F0000E12EAC0882309F4E7C00E94F211E4C08A
:10150000882309F4E1C00E94FF11DEC0C93C9CE5BC
:10151000D90731F4882309F4D7C00E942C12D4C013
:10152000CA3CDC4530F4882309F4CEC00E941D1269
:10153000CBC0882309F4C8C00E943B12C5C0C33D7C
:10154000FCE5DF0749F4F8018281882309F4BCC077
:1015500088E10E946214B8C0C43D8CE5D80708F049
:1015600069C0F8018281CF3CFCE5DF0771F4882374
:1015700009F4AAC00E947310863028F00E947310EC
:10158000883008F43ACE86E0E4CFC03D9CE5D90728
:1015900000F5CD3CECE5DE0729F4882309F494C07E
:1015A00081E0D7CFCE3CDC4530F4882309F48CC0F1
:1015B0000E948C1089C0882309F486C00E94731091
:1015C000823028F00E947310853008F416CE82E035
:1015D000C0CFC13D9CE5D90771F4882309F474C0DC
:1015E0000E9473108F3028F00E947310843108F429
:1015F00004CE8FE0AECFC23DDC4570F4882309F401
:1016000063C00E947310893028F00E9473108E30DE
:1016100008F4F3CD89E09DCF882309F455C00E94DA
:101620007310853128F00E947310873108F4E5CDDE
:1016300085E18FCFCD3DFCE5DF0749F4F8018281DC
:10164000882309F441C082E00E94BC2D3DC0CE3DFC
:101650008CE5D80738F5C53D9CE5D90731F4F8018C
:101660008281882389F183E274CFC53DECE5DE07F2
:1016700078F4F8018281882339F10E94731089314E
:1016800028F00E947310823208F4B7CD89E161CF4F
:10169000CC3DDC4509F0D4CEF80182818823A1F04D
:1016A00080E0D2CFCE3D8CE5D80739F4F8018281B5
:1016B000882351F00E946A2507C0CE01875F9C45B0
:1016C000079708F4A7CDBCCE80E0DF91CF911F91A2
:1016D0000F91089580E090E00895089524E5829F99
:1016E000C0011124FC0126E0729FE00DF11D1124C0
:1016F000E60FF11DEE0FFF1FE154FE4F859194910F
:101700000895880F991FFC01E95CFA4F8591949127
:101710000895CF93DF930E946E0B0E94500DEC0151
:101720008115904508F041C0C11580E4D80708F044
:101730002DC1C83ED10510F5C03ED10508F0ACC1A1
:10174000C83AD10578F4C53AD10508F0A7C0C13030
:10175000D10509F4A1C108F452C1C430D10508F083
:101760009BC14DC1CF3BD10508F4A3C0C03CD105FE
:1017700008F445C1CE01805C9109FAC0C11590E220
:10178000D90758F4C11521E0D20708F085C1C03F40
:10179000D10508F434C1D0657FC1C11580E3D807F5
:1017A00008F0EAC0CE019F70E3C0C11595E5D907E6
:1017B00008F043C0C11524E5D20708F0FEC0C115EA
:1017C00082E5D80708F5C11591E5D90708F0E1C011
:1017D000CE0174E0969587957A95E1F783709C2FFA
:1017E000937021E030E002C0220F331F9A95E2F798
:1017F0003C68382BCF70C695C69580E2C89FE00143
:101800001124C22BD32B48C19E01237033278C2F68
:1018100086958695C115D34508F0C0C0C1E0D0E0DB
:1018200002C0CC0FDD1F2A95E2F720E2829FC001A3
:101830001124C82BD92BDC682FC1C1152AE5D2078A
:10184000A0F4C11589E5D80708F0C6C0C11596E512
:10185000D90708F4B7C0C11528E5D20708F4CFC0EE
:10186000DC2FCC27C06FD06A17C1C1158BE5D80714
:1018700008F4C5C0C1159CE5D90708F4BDC0CE0168
:1018800090568115904208F0BAC08D2F8F710E943A
:10189000E40DDD27D0628F71D82BFEC0C53AD1058B
:1018A00009F4B0C0C63AD10509F0AFC0C2E8D0E42F
:1018B000F3C0C83AD10509F4ABC0C93AD10509F45F
:1018C000AAC0CA3AD10509F4A9C0CB3AD10509F496
:1018D000A8C0CC3AD10509F4A7C0CB3BD10509F487
:1018E000A6C0CC3BD10509F4A5C0CD3AD10509F479
:1018F000A4C0C03BD10509F4A3C0CE3AD10509F478
:10190000A2C0CF3AD10509F4A1C0C13BD10509F469
:10191000A0C0C23BD10509F49FC0C33BD10509F467
:101920009EC0C43BD10509F49DC0C53BD10509F457
:101930009CC0C63BD10509F49BC0C73BD10509F447
:101940009AC0C83BD10509F499C0C93BD10509F437
:1019500098C0CD3BD10509F497C0CE3BD10509F421
:1019600096C0CA3BD10509F495C0C0E0D4E494C048
:101970000E94810BEC0190C0CE019927D3FF03C0D8
:10198000EC01D86C89C0EC01D06C86C0DF70D06AE5
:1019900083C0DC2FCC27C16FD06A7EC0C1E0D0E00D
:1019A00002C0CC0FDD1F2A95E2F720E2829FC00122
:1019B0001124C82BD92BDA686FC0DC2FCC27C46F59
:1019C000D06A6AC08C2F0E94E40D8F71C82FD0E0BE
:1019D000DC2FCC27D06260C08C2F8F700E94E40D6A
:1019E00094E0D695C7959A95E1F7CF70D0E0DC2FBB
:1019F000CC27D069C82B50C0DD27D0664DC0C0E0D1
:101A0000D0E04AC0C1E8D0E447C0C3E8D0E444C055
:101A1000C2EED4E441C0C9EED4E43EC0CAEED4E480
:101A20003BC0C5EBD4E438C0C6EBD4E435C0C3EB4F
:101A3000D4E432C0C4EBD4E42FC0C7EBD4E42CC050
:101A4000CCECD4E429C0CDECD4E426C0C3E8D5E482
:101A500023C0CAE8D5E420C0C2E9D5E41DC0C4E96A
:101A6000D5E41AC0C1E2D6E417C0C3E2D6E414C07C
:101A7000C4E2D6E411C0C5E2D6E40EC0C6E2D6E4A4
:101A80000BC0C7E2D6E408C0CFE6D4E405C0C0E787
:101A9000D4E402C0CAE2D6E4CE01DF91CF9108952A
:101AA0008238910569F1B0F48133910509F46DC074
:101AB00048F48932910509F463C08A32910509F42A
:101AC00069C008958533910509F455C0893391059E
:101AD000B9F00895833E910569F138F4803E91058F
:101AE000B1F0823E910509F10895863E9105A9F174
:101AF000873E9105B9F1843E910509F064C023C089
:101B000020917C0320FD4FC021FD4DC008958091A0
:101B10007C0380FD44C080917D0380FF44C08091A0
:101B20007C0384FD42C083EE4DC080917C0382FF24
:101B300038C0F5CF80917C0382FD33C080917D0356
:101B400080FD31C0ECCF80917D0381FF32C0809158
:101B50007C0384FD2AC087EE35C080917C0383FF1F
:101B600026C0F5CF80917C0383FD21C080917D0349
:101B700081FD1FC0ECCF80917C0385FD1CC01DC082
:101B800080917C0385FD19C016C080917C0386FD81
:101B900016C017C080917C0386FD13C010C089E376
:101BA00011C082EE0FC080EE0DC080E00BC086EE4B
:101BB00009C084EE07C089E205C085E303C08AE25C
:101BC00001C081E390E0089590917C0392FF0DC0E5
:101BD000282F2871283019F4877F846006C0282FA9
:101BE0002471243011F48B7F886093FF0DC0282F5F
:101BF0002871283119F4877E846106C0282F24714A
:101C0000243111F48B7E886120917D0320FF0DC06B
:101C1000382F3871383019F4877F816006C0382F2B
:101C20003171313011F48E7F886021FF0DC0282F73
:101C30002871283119F4877E816106C0282F21710F
:101C4000213111F48E7E886194FD877E0895CF93B3
:101C5000C82F90E00E94B532809322029093230215
:101C6000282FFC019BEF8E2F821B8C1710F4919371
:101C7000FACFCF9108950F931F93CF93DF931092D4
:101C8000210250912202E52FF091230240E0A62F7D
:101C9000B0E07BEFCAEFD0E09E2F951B9817D0F4F1
:101CA00090819B3FA9F0292F30E0691728F08D0122
:101CB000021B130B980106C08E01021B130B980127
:101CC0002A0F3B1F2530310514F0708301C041E01D
:101CD0003196E2CF40932102DF91CF911F910F9176
:101CE0000895CF93DF9310922402509122023091F5
:101CF0002102DB01EC01E52FF091230290E08E2F11
:101D0000851B841778F489916C91681741F0608184
:101D10006B3F21F420838C9331E001C091E0319638
:101D20001196EDCF3093210290932402DF91CF9151
:101D30000895CF92DF92EF92FF921F93CF93DF939C
:101D40007C016B01C42F122F0E949B266AEF70E06A
:101D50000E948732D82F80912102882319F16D2F9C
:101D60008C2F0E943B0E112369F02D2F4C2FB601B2
:101D7000C701DF91CF911F91FF90EF90DF90CF903F
:101D80000C94710E80912102882379F380912402B2
:101D90008111EBCFDF91CF911F91FF90EF90DF90FA
:101DA000CF9008951111E1CFF1CFCF93DF9397FF3B
:101DB0000DC0FB012281222349F0EC010E94000F9B
:101DC000CE019F770E94410F0E942A0F81E0DF9190
:101DD000CF9108958CE090E00E94E33390E0A0E082
:101DE000B0E08093300390933103A0933203B0931B
:101DF00033030895609130038CE090E00C94F73346
:101E00000E94C923809334030E94DC238091300315
:101E1000813071F048F0823081F08430A1F486EE98
:101E20000E94D81A88E10DC082EE0E9446190BC0AC
:101E300088E193E00E94C40706C082EE0E94461922
:101E400087E50E94D81A8FE39CE90197F1F700C05B
:101E50000000089580913003813039F040F08230E5
:101E600031F0843051F488E206C08CE204C082EE86
:101E70000E94701A02C00E94D81A809134030C94F8
:101E8000D9230F931F93CF93DF938C01CCE0D0E045
:101E9000C8010C2E02C0969587950A94E2F78F70C0
:101EA0000E9482080E94D81A2497CC3F8FEFD8074F
:101EB00079F7DF91CF911F910F9108950F931F93A1
:101EC000CF93DF93EC018B01FB018281882319F111
:101ED000C33EFCE5DF07C1F050F4C13EECE5DE0790
:101EE00081F0C23EFCE5DF07B1F481E010C0C43EE2
:101EF0008CE5D80759F0C53EECE5DE0761F484E0D7
:101F000006C01092300305C082E001C083E08093D8
:101F100030030E94FA0EB801CE01DF91CF911F91DC
:101F20000F910C94D50ECF92DF92EF92FF920F9308
:101F30001F93CF93DF93362F472F282FE82FF0E002
:101F4000711106C0E25BF94F6491762F862F7BC03A
:101F5000072F10E056E0659FC0011124CFEFD0E0BD
:101F6000BE010E9487325BEA5603C001579F900D65
:101F70001124830F911D830F911D982F990F980F96
:101F80007E01E01AF10AEE9ED001EF9EB00DFE9E9A
:101F9000B00D11248B2F499FA0011124452F5527E7
:101FA0007E01E41AF50AEE9EA001EF9E500DFE9E02
:101FB000500D11246E01C91AD108C09E7001C19E36
:101FC000F00CD09EF00C11240F2D1127C01BD10B4B
:101FD000CE9F8001CF9F100DDE9F100D1124623027
:101FE000710591F048F461157105E1F061307105FA
:101FF000B1F49B2FE52F0AC06430710569F040F001
:102000006630710579F00BC0912FEB2F822F0DC038
:10201000922FEB2F852F09C0922FE12F06C0952F0D
:10202000E22F03C09B2FE22F812FF0E0E25BF94FFC
:102030007491E82FF0E0E25BF94F6491E92FF0E052
:10204000E25BF94F8491DF91CF911F910F91FF9047
:10205000EF90DF90CF9008950895CF93DF93762F80
:10206000E901682F842F0E94930F798368838A8304
:10207000DF91CF91089580913503282F269530E088
:102080002115310519F48170826005C025323105B2
:1020900024F08170886480933503089588E090E08F
:1020A0000C94EB33CF92DF92EF92FF926B017C01A5
:1020B0000E943B10B701A60188E090E0FF90EF90EE
:1020C000DF90CF900C940934E5E3F3E083E0808364
:1020D00011828FEF82838383148260817181828178
:1020E00093810C9452108091350380FF02C0869535
:1020F000089580E0089580913903833018F48F5F4C
:1021000080933903609135037091360380913703D2
:10211000909138030C94521080913903882319F060
:10212000815080933903609135037091360380911B
:102130003703909138030C94521060910C0170E0B9
:102140008091350380FF0AC08091290224E0829F9C
:10215000C0011124865C9C4F0C94D81580912802F4
:1021600090910B01891780F724E0829FF0011124E0
:10217000E65CFC4F1182108212828F5FF3CF909148
:10218000350390FF13C09091280220910B01921704
:1021900058F434E0939FF0011124E65CFC4F8183F6
:1021A000608342839F5FF3CF0C949D100895CF937B
:1021B000DF9300D000D0CDB7DEB79091350390FF0C
:1021C0000AC09E012F5F3F4F0E942D104B816981F5
:1021D0008A810E94BF100F900F900F900F90DF9197
:1021E000CF910895CF93DF93EC01EC81F0E0E75BB2
:1021F000FA4F4491E5E3F3E0628181810E94D710B8
:102200008C818F5F8C83DF91CF910895CF93DF9383
:10221000EC01E5E3F3E0438162818C810E94D710F9
:102220008C818F5F8C83DF91CF9108950F931F93E3
:10223000CF93DF9300D000D0CDB7DEB78C01809173
:10224000250281110AC09E012F5F3F4F4FEF6FEFB4
:102250000E942D108A8180932502F80184818130AB
:1022600051F028F0823061F4409125020AC080913B
:10227000250240E007C06091250240E080E003C0F5
:1022800040E080E060E00E94BF10F801848190E0AF
:10229000019663E070E00E949B3284830F900F9060
:1022A0000F900F90DF91CF911F910F910895AF92F2
:1022B000BF92CF92DF92EF92FF920F931F93CF9333
:1022C000DF9300D000D0CDB7DEB7182FF62E042F45
:1022D000E22E9091350390FF6CC0E92FE695AE2F6A
:1022E000B0E0AE52BE4F8C91809331029E7F92300F
:1022F00061F49E012F5F3F4F812F0E942D104B8173
:1023000069818A810E94BF1042C0823019F4009115
:1023100038033DC0863019F41091360338C0893037
:10232000D9F38931A1F5E9518E2F8170D82EE69528
:10233000F0E0E75BF94FA590B490C12CBB2460910D
:102340000A01C61610F52C2D30E0A29EC001A39EF6
:10235000900DB29E900D112470E00E948732812F63
:10236000D11002C0860F01C0861B90912802290F50
:10237000311D220F331F220F331F265C3C4F402F8D
:102380006F2D0E942D10C394DACF0E949D101093E0
:102390003603F092370300933803EE2051F060913A
:1023A00035037091360380913703909138030E9472
:1023B00052100F900F900F900F90DF91CF911F91BF
:1023C0000F91FF90EF90DF90CF90BF90AF90089566
:1023D000E5E3F3E09181282F438162818CE0890F4E
:1023E0000C94571181E00C94E811E5E3F3E091813E
:1023F000282F4381628184EF890F0C94571181E06B
:102400000C94F511E5E3F3E062812FEF620F08F41D
:102410006FEF282F438181810C94571181E00C9438
:102420000212E5E3F3E062812FEF621B08F460E043
:10243000282F438181810C94571181E00C94111253
:10244000E5E3F3E043812CE0420F08F44FEF282F3F
:10245000628181810C94571181E00C942012E5E394
:10246000F3E043812CE0421B08F440E0282F628116
:1024700081810C94571181E00C942F1220E00C9470
:102480005711FF920F931F93CF93DF93EC01F12C21
:102490000FEF10E060910A01F616E8F4809128022F
:1024A0002F2D30E0280F311D220F331F220F331F35
:1024B000265C3C4F70E0C8010E949B32962F8C81B5
:1024C0004091380360913703F99E800D11240E94DA
:1024D0002D10F394DFCF0E949D109A818C8190FF84
:1024E00002C08F5F01C081508C83DF91CF911F911B
:1024F0000F91FF900895BF92CF92DF92EF92FF92DB
:102500000F931F93CF93DF93FC01828180FF02C062
:102510000FEF01C001E010E080910A011817D8F513
:1025200080912802C12ED12CE601C80FD11DCC0FFD
:10253000DD1FCC0FDD1FC65CDC4F198218821A82AA
:1025400024E0E22EF12CB12C809127028B0D87FF25
:1025500003C090910A01890F082E000C990BC81630
:10256000D90691F4809138038E9DA0018F9D500D66
:10257000112455954795559547959E0160913703D0
:10258000809136030E942D10B00EF1E0EF1AF10891
:10259000D9F61F5FC1CF0E949D10809127020130A4
:1025A00031F4811102C080910A01815007C090E08E
:1025B000019660910A0170E00E949B32809327028D
:1025C000DF91CF911F910F91FF90EF90DF90CF900F
:1025D000BF9008950F931F93CF93809128029091FD
:1025E0000B01891758F424E0829FF0011124E65C66
:1025F000FC4F1182108212828F5FF3CFC0E0609196
:102600000A01C61790F50C2F10E070E0C8010E9477
:102610009B32E09128028E0F20912602022E000CA0
:10262000330BE82FF0E0EE0FFF1FEE0FFF1F021736
:102630001307A4F080910901082E000C990B801754
:10264000910764F09F01265C3C4F409138036091F4
:102650003703809136030E942D1005C0E65CFC4FC5
:10266000118210821282CF5FCACF0E949D102091EA
:10267000080180912602820F809326029091090121
:10268000920F9093090119165CF4082E000C990B17
:1026900040910A0150E041505109841795071CF000
:1026A000219520930801CF911F910F9108950F93C9
:1026B0001F93CF93DF938C01FC0184819581019658
:1026C0008170992795838483C0E0D5E580910A01C4
:1026D000C817F8F4809128022C2F30E0280F311D04
:1026E000220F331F220F331F265C3C4F4C2F469581
:1026F000F80184819581840F911D81704091380388
:10270000609137038D9F802D11240E942D10CF5F83
:10271000DDCFDF91CF911F910F910C949D100F93FE
:102720001F93CF93DF93EC0100E010E080910A014A
:10273000282F30E0021713071CF59091280298010A
:10274000290F311D220F331F220F331F265C3C4FF0
:10275000869590E04C81081719071CF4442331F04A
:1027600002C0411103C04091380301C040E06091B4
:102770003703809136030E942D100F5F1F4FD6CF75
:102780000E949D108C8190E00196817099278C8326
:10279000DF91CF911F910F910895E5E3F3E08081E0
:1027A0008E7F808360817181828193810E9452102B
:1027B000109232022FEF80E792E02150804090404B
:1027C000E1F700C000000C949D10E5E3F3E0808188
:1027D0008E7F8083109232022FEF80E792E02150AB
:1027E00080409040E1F700C000000C949D10609183
:1027F0003503669570E04BE050E08DE091E00E947B
:10280000D633892B19F481E0809332020E949B26F3
:1028100090932B0280932A0208959091350390FFA4
:1028200035C09170811102C0926006C0853210F0EF
:10283000986402C0880F982B90933503662351F05B
:10284000609135037091360380913703909138037E
:102850000E94521060913503669570E04BE050E0A5
:102860008DE091E00E94D633892B19F0109232024C
:1028700002C00E94F71381E080932D02409138033B
:1028800060913703809136030C943E120895682FAF
:1028900090913503969581E0890F853208F081E0AB
:1028A0000C940D1481E00C944714682F909135031B
:1028B00096958FEF890F09F484E20C940D1481E052
:1028C0000C94551461E00C940D14E5E3F3E0808161
:1028D0008160808386950C9462148091350380FD1D
:1028E0000C94CD130C94651460E00C940D1480913D
:1028F0003002811133C08091F80281608093F80228
:102900000E94CD24811104C00E946A250E94641097
:102910000E944E1060933503709336038093370303
:10292000909338036E7F61F40E9464100E944E10F1
:102930006093350370933603809337039093380385
:102940000E943B10109232028091350380FF03C039
:1029500086950E94741481E0809330020895E5E327
:10296000F3E080818160808386950C9474141092CA
:10297000320208950F931F93CF93DF938091320219
:10298000882309F48CC080913102E0913503E695EB
:10299000E81BE0932C02823049F4F0E0EB5BFA4F45
:1029A000E491CE2FD0E002EF10E149C0863049F427
:1029B000F0E0EE5BFA4FE491CE2FD0E006E011E1BB
:1029C0003EC0893051F4E695F0E0E15CFA4FE491C5
:1029D000CE2FD0E001E412E132C08F3051F4E69501
:1029E000F0E0E45CFA4FE491CE2FD0E00BE712E187
:1029F00026C0853149F4F0E0E75CFA4FE491CE2F30
:102A0000D0E00AEE12E11BC0883181F0833239F444
:102A1000E7E3F5E0C591D49106E111E110C08432FD
:102A200051F4C4EFD1E00FE813E109C0C8EED3E0E0
:102A300007E513E104C0C0EDD7E00CE210E180919E
:102A40002D02882389F010922D020E949B269E0160
:102A500020953095820F931F90932B0280932A022A
:102A600010922F0210922E0280912A0290912B0236
:102A70000E94A7268C179D0790F0E0912A02F09102
:102A80002B02CE0FDF1FD0932B02C0932A028AE2C3
:102A900092E0F801DF91CF911F910F910994DF919E
:102AA000CF911F910F910895882319F05198599A49
:102AB00002C0519A59985098589A95E09A95F1F712
:102AC0000000509A589895E09A95F1F700008823F5
:102AD00011F0519A599885E08A95F1F70000089510
:102AE0008BB18C7F8BB95098589A5198599A85E040
:102AF0008A95F1F7000008958AB18C7F8AB985E044
:102B00008A95F1F70000519A599885E08A95F1F776
:102B10000000509A589885E08A95F1F700000895D2
:102B20005098589A85E08A95F1F700005198599A83
:102B300085E08A95F1F700000895CF93DF93D82FB1
:102B4000C8E08D2F80780E945415DD0FC150C9F761
:102B500080E00E94541585E08A95F1F7000085E039
:102B60008A95F1F7000080E0DF91CF9108952BB1B5
:102B7000342F309523233BB1432B3FB7F894FC010E
:102B8000680F791FE617F70789F0819198E04BB934
:102B9000000000C087FF2BB9880F000000C000C0F4
:102BA00000C02BB900C09A9591F7ECCF3FBF0895B4
:102BB000AF92BF92CF92DF92EF92FF920F931F934B
:102BC000CF93DF938C01EB01CFB6D090BC00F8948B
:102BD0008091BC008B7F8093BC000E9470150E9486
:102BE0007C1584E80E949D15CC0FDD1FCC0FDD1FE6
:102BF00078015801AC0EBD1EEA14FB0431F0F70158
:102C000081917F010E949D15F7CF0E949015CFBE44
:102C1000D092BC00579A40E8BE01C801DF91CF9125
:102C20001F910F91FF90EF90DF90CF90BF90AF90EA
:102C30000C94B7150F931F93CF93DF93C62FD42F08
:102C4000122FFC0182818823C9F0609335020E9413
:102C50009B26909334028093330280E28C0F88305D
:102C600008F057C0C77081E001C0880FCA95EAF725
:102C7000DF91CF911F910F910C94EB1A8091350247
:102C8000681330C080913302909134020E94A726CD
:102C9000883C910538F500E20D0FCD17B9F080E2C0
:102CA0008C0F883040F4C77081E001C0880FCA954E
:102CB000EAF70E94F21A083028F581E09D2F9770FC
:102CC00001C0880F9A95EAF70E94EB1A812F0E94A3
:102CD000D81A0830F0F4D77081E001C0880FDA9577
:102CE000EAF70AC080E28C0F883098F4C77081E060
:102CF00001C0880FCA95EAF7DF91CF911F910F911C
:102D00000C94F21A812FDF91CF911F910F910C94A7
:102D1000D81ADF91CF911F910F9108959C01CB019B
:102D2000203F4CE53407F9F078F4283DFCE53F07F7
:102D3000B9F0293D4CE5340711F1273D3C4531F50B
:102D400026E241EE61EE1EC0223FFCE53F0799F00E
:102D500070F0233F3C45D1F427E245EE66EE12C009
:102D600027E245EE0EC026E241EE60EE0BC027E200
:102D700045EE64EE07C026E241EE62EE03C028E2B3
:102D800041E065EE0E941A1680E00895FC01828100
:102D9000882319F010923502089581E00895109269
:102DA000B9008CE08093B8000895EF92FF920F93E2
:102DB0001F93CF93DF93182FEB011092BC0084EA8E
:102DC0008093BC000E949B267C018091BC0087FD03
:102DD0000EC0CF3F8FEFD807C1F30E949B268E19FC
:102DE0009F098C179D0788F38EEF9FEF2EC080916F
:102DF000B900887F883041F08091B900887F8031A8
:102E000019F08FEF9FEF21C01093BB0084E88093EF
:102E1000BC000E949B268C018091BC0087FD0CC0E9
:102E2000CF3F8FEFD807C1F30E949B26801B910BE9
:102E30008C179D0788F3D8CF8091B900887F88319F
:102E400011F08034F1F680E090E0DF91CF911F9196
:102E50000F91FF90EF9008950F931F93CF93DF93FF
:102E6000EB018093BB0084E88093BC000E949B260A
:102E70008C018091BC0087FD0EC0CF3F8FEFD8073B
:102E8000C1F30E949B26801B910B8C179D0788F332
:102E90008EEF9FEF0CC02091B900287F81E090E079
:102EA000283211F480E090E0919581959109DF91AD
:102EB000CF911F910F9108950F931F93CF93DF939D
:102EC000EC0184E88093BC000E949B268C018091D9
:102ED000BC0087FD0EC0CF3F8FEFD807C1F30E9423
:102EE0009B26801B910B8C179D0788F38EEF9FEF1D
:102EF00003C08091BB0090E0DF91CF911F910F91B3
:102F0000089584E98093BC00089590933B028093D8
:102F10003A020895E0913A02F0913B02309721F095
:102F20000190F081E02D099480E00895E0913A024B
:102F3000F0913B02309799F020912901222359F01A
:102F400020917C0327FF07C0DC012C9111962C9364
:102F5000119725E02C930280F381E02D09940895C8
:102F6000E0913A02F0913B02309739F022E0DC0127
:102F70002C930480F581E02D099408952091380266
:102F8000309139022817390771F0909339028093F4
:102F90003802E0913A02F0913B02309721F006802E
:102FA000F781E02D0994089520913602309137027F
:102FB0002817390771F09093370280933602E09119
:102FC0003A02F0913B02309721F00084F185E02D28
:102FD0000994089585B7806885BF85B7806885BFE7
:102FE000089508950C94F1170C94F2170C94F117AE
:102FF0000C94F1170E94EA170E94F6170C94F4172C
:1030000081E008950E9492260E9446050E94292789
:103010000E9477140C94F817BF92CF92DF92EF9230
:10302000FF920F931F93CF93DF93CDB7DEB72A970D
:103030000FB6F894DEBF0FBECDBF0E9473050E948D
:103040000018811111C08FEF89838A831B820E942F
:103050009B268160782F9D838C8349815A816B8167
:103060008D810E94F11854C08DE3C82E82E0D82EC5
:1030700000E010E0B02E802F0E94CF05E82EF60170
:1030800021916F01F82EF22631F40F5F1F4F0E30A1
:10309000110581F7D8CF8091F80281FD0E94D505F6
:1030A00080E090E02F2D30E0482FB901082E02C0BB
:1030B000759567950A94E2F760FF25C08E83BF82FD
:1030C00081E090E06C0102C0CC0CDD1C4A95E2F777
:1030D0002E2D30E02C213D21232B09F480E0888720
:1030E0000E949B268160782F9A8789874E815F8115
:1030F00068858A850E94F118F801E35CFD4F8081A4
:103100008C25808305C001968630910569F6BDCF78
:103110000E94BB280E948A1790913C028917A9F04F
:103120000E948A1780933C022A960FB6F894DEBF5D
:103130000FBECDBFDF91CF911F910F91FF90EF9008
:10314000DF90CF90BF900C9493082A960FB6F89416
:10315000DEBF0FBECDBFDF91CF911F910F91FF90CA
:10316000EF90DF90CF90BF900895DC0111962C91E5
:1031700011978C91682F70E041E050E001C0440F3E
:103180008A95EAF712968C91129730E0882329F0FD
:1031900080915B028823E9F006C0F901E55BFD4FF1
:1031A00090819423B1F086E0829FF001839FF00D1F
:1031B0001124E60FF71FEE0FFF1FE65DFE4F808123
:1031C00091818D939C93F901E55BFD4F8081482BA4
:1031D00006C0F901E55BFD4F40958081482340839F
:1031E0000895CF93DF93CDB7DEB72B970FB6F89442
:1031F000DEBF0FBECDBF942F4F83252F5887698721
:103200007A878B874A855B85452B31F02F3F31F4D8
:1032100081E09F3F19F403C081E001C080E080FDA0
:1032200004C0CE0107960E94B518DE01119686E013
:10323000FD0111928A95E9F785E0FE01379601902C
:103240000D928A95E1F749815A816B817C818D814C
:103250009E810E94B4202B960FB6F894DEBF0FBE5D
:10326000CDBFDF91CF910895FC01808191810E94B3
:103270008A2392959F70963041F480915B0291E091
:10328000892780935B0290935A020895CF938823F5
:1032900009F424C1C82F8238C1F40E948A1781FD25
:1032A0001DC169E380911801909119010E94D225F6
:1032B0000E941A242FEF81EE94E02150804090402C
:1032C000E1F700C0000069E319C0833801F50E94EE
:1032D0008A1780FD03C163E580911801909119015F
:1032E0000E94D2250E941A242FEF81EE94E02150F3
:1032F00080409040E1F700C0000063E58091180134
:10330000909119010E94DD25CF910C941A248438E4
:10331000C1F40E948A1782FDE1C067E48091180120
:10332000909119010E94D2250E941A242FEF81EE5C
:1033300094E0215080409040E1F700C0000067E435
:10334000DDCF8CEF8C0F813A68F48C2F0E94C32A5A
:103350008111C4C06C2F80911801909119010E94B5
:10336000D225D2CF80E28C0F883048F4C77081E03C
:1033700001C0880FCA95EAF70E94CC23C5CF8BE520
:103380008C0F833078F4C53A29F0C63A31F083E8DF
:1033900090E005C081E890E002C082E890E0CF9123
:1033A0000C94BE1788E58C0F873108F08FC0C83A9F
:1033B00009F445C0C93A09F445C0CA3A09F445C000
:1033C000CB3A09F445C0CC3A09F445C0CB3B09F4EB
:1033D00045C0CC3B09F445C0CD3A09F445C0C03BDB
:1033E00009F445C0CE3A09F445C0CF3A09F445C0C6
:1033F000C13B09F445C0C23B09F445C0C33B09F4D5
:1034000045C0C43B09F445C0C53B09F445C0C63BB3
:1034100009F445C0C73B09F445C0C83B09F445C0A1
:10342000C93B09F445C0CD3B09F445C0CE3B09F486
:1034300045C0CA3B09F445C080E090E044C082EE3C
:1034400090E041C089EE90E03EC08AEE90E03BC043
:1034500085EB90E038C086EB90E035C083EB90E0E0
:1034600032C084EB90E02FC087EB90E02CC08CEC56
:1034700090E029C08DEC90E026C083E891E023C065
:103480008AE891E020C082E991E01DC084E991E0E2
:103490001AC081E292E017C083E292E014C084E295
:1034A00092E011C085E292E00EC086E292E00BC08D
:1034B00087E292E008C08FE690E005C080E790E0E8
:1034C00002C08AE292E0CF910C94D417C03F30F052
:1034D0008C2F0E94C327CF910C94B028CF910895D0
:1034E000882309F464C0823879F40E948A1781FF26
:1034F0005EC069E380911801909119010E94D22564
:103500000E941A2469E310C08338B1F40E948A171C
:1035100080FF4DC063E580911801909119010E94D0
:10352000D2250E941A2463E5809118019091190117
:103530000E94DD250C941A24843879F40E948A179D
:1035400082FF35C067E480911801909119010E94B3
:10355000D2250E941A2467E4E7CF9CEF980F913A96
:1035600010F4682FE1CF90E2980F983050F48770F4
:1035700091E001C0990F8A95EAF7892F0E94D22322
:10358000D9CF9BE5980F933020F480E090E00C9425
:10359000BE1798E5980F973120F480E090E00C94E6
:1035A000D417803F20F00E942B280C94B028089557
:1035B000CF93C82F0E944619C93349F42FEF87EEE5
:1035C00093E0215080409040E1F700C000008C2F34
:1035D000CF910C94701A882321F00E94CC230C9474
:1035E0001A240895882321F00E94D2230C941A24CF
:1035F0000895CF92DF92EF92FF920F931F93CF9394
:10360000DF937C01062FC72FFC01158112951F70D7
:10361000D281D1110E94EC230E94C223882379F029
:10362000DD2369F080E2800F883048F082E00E945C
:1036300064240E94C22391E0D82ED92601C0D12C47
:10364000CC2EC2948FE0C8228C2D90E0FC01EB5967
:10365000FF4F0C94AF328C2F807FCF70882311F0F6
:10366000C295C07FDD2399F0CC2309F4BDC180E26F
:10367000800F883010F0011104C08C2F0E94CC23E1
:1036800003C08C2F0E94DF230E941A24ADC1802F1B
:103690000E94701ACC2309F423C280E2800F883084
:1036A00010F0011104C08C2F0E94D22303C08C2F74
:1036B0000E94E5230E941A2413C28C2F807FCF70B2
:1036C000803211F0C295C07F002319F00130C9F09B
:1036D00024C0DD2371F0112341F0113031F40E9438
:1036E000FF238C2B0E940724FBC10E94FF238C2BFD
:1036F0000EC0112319F0113009F4F2C10E941024F8
:103700001EC0DD2339F0123008F0EAC18C2F0E9470
:10371000EB1AE6C11111E4C112C0DD2319F0112327
:10372000A9F362C1112359F0093309F06EC1FFEF0B
:1037300027EE83E0F15020408040E1F764C18C2FF8
:103740000E94F21ACDC18C2F86958695837019F050
:10375000813061F0C5C1DD2321F0802F9C2F937053
:1037600002C080E090E00E94BE17C2C1DD2321F0BC
:10377000802F9C2F937002C080E090E00E94D417AD
:10378000B7C1DD23F9F0053F51F0063F71F0043F6A
:10379000A9F4809176039091770381600BC08091AA
:1037A000760390917703826005C0809176039091B3
:1037B000770384609093770380937603802F0E9431
:1037C000C3271EC0053F51F0063F71F0043FA9F426
:1037D00080917603909177038E7F0BC08091760362
:1037E000909177038D7F05C0809176039091770348
:1037F0008B7F9093770380937603802F0E942B28F2
:103800000E94B02875C18C2F837009F045C0D1117A
:103810006BC1402F429546954770440F440F602F6F
:103820006F70862F90E0A0E0B0E0042E04C0880FF7
:10383000991FAA1FBB1F0A94D2F704FF10C00FE004
:1038400010E020E030E004C0000F111F221F331FE2
:103850004A95D2F7009510952095309503C000E069
:1038600010E09801C695C695C370BC01CD01602BD0
:10387000712B822B932BC23049F058F4C13019F0D0
:103880000E94052231C10E94F3212EC10E941722FD
:103890002BC10E94F12128C1DD2319F08C2F8170EA
:1038A00001C08695882309F41FC1402F4295469593
:1038B0004770440F440F602F6F70862F90E0A0E098
:1038C000B0E0042E04C0880F991FAA1FBB1F0A94E2
:1038D000D2F704FF10C00FE010E020E030E004C099
:1038E000000F111F221F331F4A95D2F70095109524
:1038F0002095309503C000E010E09801C695C6956C
:10390000C370BC01CD01602B712B822B932BC23075
:1039100049F058F4C13019F00E94CA22E5C00E9453
:10392000B822E2C00E94DC22DFC00E942B22DCC051
:10393000CF70DD2339F08C2F0E945122802F0E94FE
:10394000EB1AD2C0802F0E94F21A8C2F0E94722292
:10395000CBC0023FF9F028F4003F41F0013F99F05D
:103960003FC0033FF1F0043F31F13AC0DD2339F0AD
:103970001111B6C08C2F8F710E949722B1C01230E6
:1039800008F0AEC0F7CFDD2339F08C2F8F710E9485
:103990005122A6C0DD23C9F38C2F8F710E947222A1
:1039A0009FC0DD2329F08C2F8F710E943C2298C08C
:1039B0000E94372295C0DD2349F0CF718C2F0E94E1
:1039C000512263E08C2F0E944F248AC081E00E9424
:1039D0006424123008F484C082E00E94642480C011
:1039E000DD2331F0112389F2802F0E94461978C01F
:1039F000112391F2093349F49FEFE7EEF3E0915080
:103A0000E040F040E1F700C00000802F0E94701AF3
:103A100067C04C2F4F70602FC7010E946A0B0E9435
:103A2000622166C0023FB1F028F4003F49F0013F37
:103A3000F9F028C0043FB9F058F0053F71F022C0FA
:103A4000DD2309F447C090915B0281E0892708C01B
:103A500081E0D827D0935B023DC0D1113BC081E00B
:103A600080935B0237C0D11135C010925B0232C027
:103A7000DD2329F080915A02882329F329C01123DC
:103A800011F328C080915A021123C1F0882341F01C
:103A900090915B0281E0892780935B0210925A0229
:103AA000802FDD2319F00E94461914C00E94701A5D
:103AB00086E0F70111928A95E9F70CC0882351F04E
:103AC000D11108C090915B0281E0892780935B024D
:103AD00010925A024C2F4F70602FC7010E946D0B3D
:103AE00088EF8C0D843020F40E948A170E9493087E
:103AF000DD20C9F00E94BE2380FD15C0F7011282AF
:103B00000E94B8230E945122C7010E949C1D0E945E
:103B1000B823DF91CF911F910F91FF90EF90DF902D
:103B2000CF900C947222DF91CF911F910F91FF9053
:103B3000EF90DF90CF9008950F931F93CF93DF9373
:103B4000EC01988189812B813C81232B31F08F3FBF
:103B500031F481E09F3F19F403C081E001C080E0AF
:103B600080FD13C0CE010E94A508882371F06881F2
:103B700079818A810E9495238C010E94EE220E9405
:103B8000DF21B801CE010E94F91ADF91CF911F9178
:103B90000F9108950E94EC230E94FC230E941A2496
:103BA0000E9456290E94B02880E090E00E94BE1733
:103BB00080E090E00C94D417809118019091190145
:103BC0000E94E8250C94CA1D0E94DC230C94DC1D85
:103BD000E92FE295EF704E2F50E0FA013297EE3068
:103BE000F105B0F4EB58FF4F0C94AF32803F91F0E9
:103BF00018F4883E68F40EC0843F51F40BC0883E30
:103C000048F0813F29F406C093FB882780F9089586
:103C100080E0089581E008950E948A230E94E81DB3
:103C20000895CF93DF9300D000D01F92CDB7DEB7B9
:103C30000F900F900F900F900F90DF91CF910895FC
:103C4000CF93DF9300D000D000D0CDB7DEB726965B
:103C50000FB6F894DEBF0FBECDBFDF91CF910895B0
:103C60001F93CF93DF93C0915C0216E080915D02B9
:103C7000C81799F0D0E01C9FF0011D9FF00D112492
:103C8000E25AFD4F40815181628173818481958127
:103C90000E94201E2196C770E9CFDF91CF911F911E
:103CA000089540918E0250918F0260919002709120
:103CB000910280919202909193020C94201ECF93D6
:103CC0008091930282958F7009F05FC0809190027D
:103CD000882309F45AC080915C02B0915D02709112
:103CE0008E02A0918F02409191025091920291E038
:103CF0007F3F09F090E0692FC6E08B1709F445C0BB
:103D00004115510521F0AF3F21F020E003C021E033
:103D100001C0262F90E020FD35C0C89FF001C99F4B
:103D2000F00D1124E25AFD4F21812A132BC020816E
:103D3000271328C02281211125C023813481241713
:103D4000350710F421503109241B350B283C31056F
:103D5000C8F4209193022F7020612093930226E0F3
:103D6000289FF001299FF00D1124ED59FD4F80810E
:103D70008F70806180838EE892E00E949C1DCF91BD
:103D80000C94301E01968770B8CFCF910895AF92F2
:103D9000BF92CF92DF92EF92FF920F931F93CF9338
:103DA000DF93CDB7DEB761970FB6F894DEBF0FBED5
:103DB000CDBF8C0185E0F801DE011D9601900D92CA
:103DC0008A95E1F7D8014C9111965C911197129662
:103DD000EC9030918E0260918F02809191029091CF
:103DE0009202009731F06F3F31F421E03F3F19F428
:103DF00003C021E001C020E0B22FB170BB2E20FD36
:103E000060C1F801C380D480A0909002AA2009F478
:103E1000EEC020919302C816D90628F0D601A81B3F
:103E2000B90BCD0104C0809590958C0D9D1DFF248C
:103E3000F394883C910580F0F12C207F09F09CC020
:103E40007C2DD98AC88A6E2D89890E94111E8EE820
:103E500092E00E949C1D2DC1822F807F09F054C0EA
:103E6000561314C0431312C0FE2CE1100FC02F7064
:103E70002061209393020E94511E8EE892E00E94DE
:103E80009C1D80919302F80185835CC1CD2831F09F
:103E90005F3F31F481E04F3F19F403C081E001C07E
:103EA00080E080FD03C081E08E2502C080E090E0CC
:103EB000F82FF170FF2E80FF1CC080915C022091D2
:103EC0005D0236E0821709F41AC190E0389FF001D4
:103ED000399FF00D1124E25AFD4F6181561306C03F
:103EE0006081461303C06281E61203C001968770A9
:103EF000E9CFFE2CEE2009F425C180919302816068
:103F000080939302F12C1EC1561309C0431307C0BE
:103F1000E11005C080919302F8018583A4C04D870C
:103F20005E878D859E850E940C1E882379F1EE2088
:103F300069F120919302822F82958F7090E0029711
:103F400074F080918E0290918F0298878F831986EA
:103F5000DB86CA862C87CE0107960E949C1D86E0D0
:103F6000F801AEE8B2E001900D928A95E1F70E9467
:103F70005F1E0E94511E0DC0561771F04D875E875F
:103F80008D859E850E940C1E81111AC0C8010E9459
:103F90009C1DFF24F394D6C04313F0CFE110EECF65
:103FA00080919302F8018583C8010E949C1D86E0E0
:103FB000EEE8F2E0DF011D928A95E9F7FA2CC2C023
:103FC000EE2021F320919302822F82958F7090E052
:103FD00002972CF280918E0290918F029A838983AE
:103FE0001B82DD82CC822E83CE010196B6CFC8160D
:103FF000D90628F0F601E81BF90BCF0104C0809523
:1040000090958C0D9D1D883C910548F0F12C7C2DE0
:10401000D98AC88A6E2D89890E94111E4AC0FE2C39
:10402000EE2009F4B3CF561333C0431331C02091AF
:10403000930220FD24C0822F82958F70482F50E07C
:1040400041155105E1F0D80115962C9315974F3085
:10405000510549F08F5F982F9295907F822F8F7036
:10406000892B15968C93C8010E949C1D86E0F8014F
:10407000AEE8B2E001900D928A95E1F73DC086E08E
:10408000F801AEE8B2E001900D928A95E1F75AC0CE
:104090004D875E878D859E850E940C1E81115FCFA6
:1040A00080919302816080939302C8010E949C1DBD
:1040B00049C0EEE8F2E086E0DF011D928A95E9F75B
:1040C0001BC0EE2009F462CF4D875E878D859E85EB
:1040D0000E940C1EF82E882309F458CF86E0F801C0
:1040E000AEE8B2E001900D928A95E1F78EE892E099
:1040F0000E9434190E945F1E0E94511E23C04D87EA
:104100005E878D859E850E948A23292F22952F7098
:10411000223028F49F7039F0811105C00BC0243083
:1041200028F49F7049F4805E883020F0C8010E9416
:104130009C1DBF2CFB2C06C0D80115969C91907F2E
:1041400091F7F8CF8F2D61960FB6F894DEBF0FBEB2
:10415000CDBFDF91CF911F910F91FF90EF90DF9036
:10416000CF90BF90AF9008951F93CF93DF93CDB7BB
:10417000DEB72C970FB6F894DEBF0FBECDBF4F83CE
:10418000588769877A878B879C87CE0107960E941C
:10419000C71E8823D1F09F8188852A853B85232BE4
:1041A00031F08F3F31F481E09F3F19F403C081E08B
:1041B00001C080E080FD47C04F81588569857A85C0
:1041C0008B859C850E94201E3EC086E0FE013796AE
:1041D000DE01119601900D928A95E1F7FF81E88545
:1041E0006A857B856115710531F0EF3F31F481E01F
:1041F000FF3F19F403C081E001C080E080FD23C0CF
:1042000020915D0230E0C9010196877099274091A5
:104210005C0250E084179507F1F1F983EA837D830E
:104220006C8396E0929FD001939FB00D1124A25A07
:10423000BD4FFE01319601900D929A95E1F7809362
:104240005D020E94301E16E080915C0290915D023A
:10425000891771F1189FC0011124825A9D4F0E9445
:10426000C71E882329F1E0915C021E9FF0011124F2
:10427000E25AFD4F40815181628173818481958131
:104280000E94201E80915C0290E001968770992721
:1042900080935C02D9CF0E94E41D10925D021092BF
:1042A0005C02EEE8F2E086E0DF011D928A95E9F714
:1042B0002C960FB6F894DEBF0FBECDBFDF91CF9125
:1042C0001F910895EF92FF920F931F93CF93DF9367
:1042D0008C01892B09F46CC0F12CEE24E394E801E5
:1042E0002196F8018491843740F4843008F051C05D
:1042F000813081F0823019F15BC0853709F444C008
:10430000A8F19CE7980F903708F052C08F770E9471
:10431000701A41C00E5F1F4FFE01849190E2980F0A
:10432000983050F48770FE2D01C0FF0F8A95EAF790
:104330008F2F0E94EF2314C00E9446192DC00E5FDC
:104340001F4FFE01849190E2980F983060F48770BF
:10435000FE2D01C0FF0F8A95EAF78F2F0E94F523EB
:104360000E941A2419C00E94701A16C00E5F1F4FB7
:10437000FE01C491CC2381F08FE99FE00197F1F712
:1043800000C00000C150F6CF0E5F1F4FFE01F49039
:1043900003C00E9446198E018F2D882309F49FCFF8
:1043A000EFE9FFE03197F1F700C000008150F5CF51
:1043B000DF91CF911F910F91FF90EF900895089595
:1043C00008950C94E0210C94E1210E94E321609374
:1043D000CF027093D0028093D1029093D2020C94BA
:1043E000CA1D0C94E5210F931F930091CF021091E9
:1043F000D0022091D1023091D202602B712B822BFE
:10440000932B1F910F910C94E5210F931F93009113
:10441000CF021091D0022091D1023091D2026023BC
:104420007123822393231F910F910C94E5210F9305
:104430001F930091CF021091D0022091D1023091B0
:10444000D20260277127822793271F910F910C9426
:10445000E5210C9413070E9429226093CB027093EC
:10446000CC028093CD029093CE020C94CA1D60E0E2
:1044700070E0CB010C942B220F931F9341E050E08E
:1044800060E070E08A019B0104C0000F111F221F31
:10449000331F8A95D2F7C901B8011F910F910C946F
:1044A0002B220F931F9341E050E060E070E004C0C6
:1044B000440F551F661F771F8A95D2F78091CB0254
:1044C0009091CC02A091CD02B091CE028A019B01C5
:1044D000082B192B2A2B3B2BC901B8011F910F91D7
:1044E0000C942B220F931F9341E050E060E070E0AA
:1044F00004C0440F551F661F771F8A95D2F7409559
:104500005095609570958091CB029091CC02A091CE
:10451000CD02B091CE028A019B01082319232A23E0
:104520003B23C901B8011F910F910C942B220F93CB
:104530001F9341E050E060E070E004C0440F551F5D
:10454000661F771F8A95D2F78091CB029091CC029B
:10455000A091CD02B091CE028A019B0108271927B4
:104560002A273B27C901B8011F910F910C942B22D8
:104570000F931F930091CB021091CC022091CD029A
:104580003091CE02602B712B822B932B1F910F91B8
:104590000C942B220F931F930091CB021091CC020D
:1045A0002091CD023091CE02602371238223932388
:1045B0001F910F910C942B220F931F930091CB020C
:1045C0001091CC022091CD023091CE02602771274C
:1045D000822793271F910F910C942B220895292F46
:1045E000220F920F990F890FE82FE695E695E69531
:1045F000877051E001C0550F8A95EAF785E0E89F82
:10460000F0011124EC56FD4F20E030E070E04081D5
:10461000CB01022E02C0969587950A94E2F781702D
:10462000819584278523842781932F5F3F4F2530F1
:10463000310569F70895292F220F920F990F890FDD
:10464000682F669566956695982F977085E0689FA8
:10465000B001112440E050E080E0FB01E40FF51FC1
:10466000EC56FD4F208130E0092E02C0369527958B
:104670000A94E2F721703327042E01C0220F0A9416
:10468000EAF7822B4F5F5F4F4530510531F70895B0
:10469000BF92CF92DF92EF92FF920F931F93CF932F
:1046A000DF938C01C090CB02D090CC02E090CD0281
:1046B000F090CE028091CF029091D002A091D102D1
:1046C000B091D202C82AD92AEA2AFB2ACFE1D0E047
:1046D000D701C6010C2E04C0B695A795979587956E
:1046E0000A94D2F780FD04C0219790F7B12C07C03F
:1046F000BC2EB8018C2F0E94890B0197A9F38B2D3A
:10470000DF91CF911F910F91FF90EF90DF90CF90AD
:10471000BF900895CF93DF93EC010E944823BE0120
:104720000E94890BDF91CF9108951F93CF93DF9360
:10473000EB0190915902992321F0CB010E948A2329
:1047400013C0882349F0CB010E944823182F682FFB
:10475000CE010E94EF2204C0CB010E941B23182F20
:10476000BE01812F0E94890BDF91CF911F91089587
:104770008091D30285958595859508958091D30282
:10478000877008959091D302977081E009F480E0DA
:1047900008958091F70208959091F702892B8093F4
:1047A000F702089580959091F70289238093F7028C
:1047B00008958093F70208951092F702089590915A
:1047C000F602892B8093F602089580959091F60267
:1047D00089238093F60208951092F602089590912D
:1047E000F502892B8093F502089580959091F5024A
:1047F00089238093F50208951092F502089580911F
:10480000D402089508950C9402240C9403249091EA
:10481000D402981721F08093D4020C9405240895B3
:104820008091D402882329F01092D40280E00C9465
:1048300005240895E0911801F09119018091F70283
:104840008083E0911801F091190190818091F60226
:10485000892B8083E0911801F0911901908180915A
:10486000F502892B80838091D402882381F0E09126
:104870001801F09119019081892B80838091180192
:10488000909119010E946C2581110E941024809141
:104890001801909119010C9496170C94022498E039
:1048A000899F90011124262B2093D3020E9451222C
:1048B0008091D3028595859585950C944D24109211
:1048C000D30280E00C944D242091D3028095822362
:1048D0008093D302982F977079F430E0482F082EF8
:1048E000000C550B2417350739F08595859585956E
:1048F0000E9472220C945F240895CF92DF92EF926F
:10490000FF926C01EE24FF24C114D104E104F104F0
:1049100021F0C701B60120E101C020E0C72ED82E4A
:10492000E92EFF24C114D104E104F10419F0285F39
:10493000C701B6016B017C0154E0F694E794D7946B
:10494000C7945A95D1F7C114D104E104F10419F0C8
:104950002C5FC701B6016B017C0142E0F694E7943D
:10496000D794C7944A95D1F7C114D104E104F10456
:1049700019F02E5FC701B601DC01CB01B695A795F2
:1049800097958795892B8A2B8B2B09F02F5F822F88
:10499000FF90EF90DF90CF90089580E090E00E942C
:1049A000F13321E08D3E9E4F09F020E0822F0895E3
:1049B00082E090E00C94E33383E090E00C94E333E6
:1049C000CF9384E090E00E94E333C82F81E290E02F
:1049D0000E94E3332C2F30E0A901582BCA01CF915C
:1049E0000895CF93C92F682F84E090E00E94F73399
:1049F0006C2F81E290E0CF910C94F7338FE090E040
:104A00000C94EB33AB01BC018FE090E00C940934C3
:104A1000AB01BC0183E190E00C94093460E070E0EC
:104A2000CB010C9408256DEE7EEF80E090E00E94B3
:104A3000153460E082E090E00E94F73360E083E0AC
:104A400090E00E94F7331092CF021092D0021092A1
:104A5000D1021092D20260E084E090E00E94F7332D
:104A600060E081E290E00E94F73360E085E090E052
:104A70000E94F73360E086E090E00E94F7336FEF2A
:104A800087E090E00E94F73340E050E0BA0188E010
:104A900090E00E94093460E08DE090E00E94F733DE
:104AA00040E050E0BA0188E190E00E94093460E003
:104AB00087E190E00E94F73340E050E0BA018CE1DA
:104AC00090E00E94093460E080E290E00E94F733B9
:104AD0000C94DB060C941325FC013296809129017D
:104AE000882331F080917C0387FF02C09EE101C0E2
:104AF00096E080E0915028F021912223D9F38F5F36
:104B0000F9CF08959C01FC0132969FEF80E041911E
:104B1000461789F09F3F19F4411101C0982F8F5F0C
:104B20008630A9F79F3F39F0F901E90FF11D97FD94
:104B3000FA956283089508959C012A5F3F4FFC0116
:104B40004281461301C01282019682179307B9F77A
:104B50000895262F2695269526952E3168F4FC017A
:104B6000E20FF11D677021E030E001C0220F6A956D
:104B7000EAF78281282B22830895262F26952695F1
:104B800026952E3170F4FC01E20FF11D677021E0D3
:104B900030E001C0220F6A95EAF720958281282330
:104BA0002283089520912901222329F020917C035A
:104BB00027FD0C94A9250C948225209129012223FC
:104BC00029F020917C0327FD0C94BD250C949C2595
:104BD00020912901FC013296222331F080917C033F
:104BE00087FF02C08EE101C086E0DF011D928A9539
:104BF000E9F7089508950C94FA25CF930E94600573
:104C00000E9473050E94FB25C0E08C2F0E94CF05F7
:104C1000811104C0CF5FCE30C1F701C081E0CF91D8
:104C200008950C94FA250C9411260E941326809165
:104C30008203843009F439C01092F90220E488E13B
:104C400090E00FB6F894A895809360000FBE209373
:104C5000600080E00E9493080E94B7148091FA02DD
:104C600081110AC081E08093FA028091350381703E
:104C70008093FB020E94E5130E94132683B7817F75
:104C8000846083BF83B7816083BF7894889583B73E
:104C90008E7F83BF0FB6F894A895809160008861DD
:104CA00080936000109260000FBE08950C94FA2566
:104CB0000E94E41D0E948A170E9493081092FA0233
:104CC0008091FB0281110E94AF140E94F7130C9493
:104CD00056261F920F920FB60F9211248F939F9317
:104CE000AF93BF938091F902811113C08091780333
:104CF00090917903A0917A03B0917B034196A11D15
:104D0000B11D8093780390937903A0937A03B093B5
:104D10007B03BF91AF919F918F910F900FBE0F902A
:104D20001F90189582E084BD93E095BD9AEF97BDE2
:104D300080936E0008952FB7F89480917803909136
:104D40007903A0917A03B0917B032FBF0895CF928E
:104D5000DF92EF92FF920F931F932FB7F894409139
:104D600078035091790360917A0370917B032FBF90
:104D70006A017B01EE24FF248C0120E030E0C016A4
:104D8000D106E206F30610F4415051099A01281B9E
:104D9000390BC9011F910F91FF90EF90DF90CF90D9
:104DA000089578941F920F920FB60F9211248F934B
:104DB0009F93AF93BF938091780390917903A091D3
:104DC0007A03B0917B030196A11DB11D80937803F6
:104DD00090937903A0937A03B0937B03BF91AF9133
:104DE0009F918F910F900FBE0F901F901895F89480
:104DF00081E08093E00080E28093D800E9ECF0E06D
:104E000010828FE19EE40197F1F700C000001DBA07
:104E1000109268001CBC10BE1FBA10927A0010924B
:104E20006E0010926F00109271001092720010824A
:104E3000ECEBF0E0108214B817B81AB81DB810BA2D
:104E4000108215B818B81BB81EB811BA0C94003FE0
:104E500008950E94CD24811102C00E946A250E94FB
:104E6000D8248093F8020E94E02490937D038093DD
:104E70007C030E94DC24682F70E080E090E00C94BA
:104E8000F1218091000380FF0BC060911D0185E03E
:104E9000689FB001112475956795759567952BC02E
:104EA00081FF09C060911D0185E0689FB001112458
:104EB0007595679520C082FF07C060911D0185E050
:104EC000689FB001112417C09091FF029923D1F07F
:104ED00060911C01961788F720911D0185E0289F9D
:104EE00090011124929FA001939F500D112470E016
:104EF000CA010E949B326038710540F4611571054A
:104F000019F406C065E070E0862F08958FE70895D4
:104F100081E008958091000380FF08C060911B012B
:104F200070E0759567957595679521C081FF06C0FE
:104F300060911B0170E07595679519C082FF04C0F0
:104F400060911B0170E010C09091FF02992399F0CD
:104F500060911A019617A0F780911B01899FC001EB
:104F6000112470E00E949B326038710540F4611595
:104F7000710519F406C061E070E0862F08958FE78F
:104F8000089581E00895803F21F40E944127819592
:104F900004C0813F29F40E944127809304030895AF
:104FA000823F21F40E944127819504C0833F29F468
:104FB0000E944127809303030895893F19F40E94BA
:104FC0008A2705C08A3F31F40E948A278195809301
:104FD000050308958B3F21F40E948A27819504C020
:104FE0008C3F29F40E948A27809306030895843F0A
:104FF00021F480910203816017C0853F21F48091E4
:105000000203826011C0863F21F480910203846014
:105010000BC0873F21F480910203886005C0883F60
:1050200031F48091020380618093020308958D3FE3
:1050300021F48091000381600BC08E3F21F48091A8
:105040000003826005C08F3F29F4809100038460D3
:10505000809300030895803F39F48091040387FF13
:105060006CC01092040369C0813F29F4809104034D
:105070001816BCF362C090910303823F29F497FF96
:105080005CC01092030359C0833F19F41916CCF386
:1050900054C0893F41F48091050318160CF04DC0AF
:1050A000109205034AC08A3F29F48091050387FFC7
:1050B00044C0F6CF8B3F39F48091060387FF3DC093
:1050C000109206033AC08C3F29F48091060318160B
:1050D000BCF333C0843F21F4809102038E7F17C05C
:1050E000853F21F4809102038D7F11C0863F21F41A
:1050F000809102038B7F0BC0873F21F480910203D4
:10510000877F05C0883F31F4809102038F7E8093B2
:10511000020313C08D3F21F4809100038E7F0BC0EA
:105120008E3F21F4809100038D7F05C08F3F29F4CD
:10513000809100038B7F8093000380910303811192
:105140000EC08091040381110AC080910503811172
:1051500006C080910603811102C01092FF020895DB
:1051600081E093E00E94B0170E949B269093FE027C
:105170008093FD0208951F93CF93DF938091FD02EA
:105180009091FE020E94A726AC019091FF02992304
:1051900021F020911E0130E006C02091FC028AE03F
:1051A000289F900111244217530708F47BC0809177
:1051B0000303C0910403D0910503109106038111EC
:1051C00007C0C1116BC0D11169C0111167C06AC09D
:1051D0009F3F19F09F5F9093FF02181624F40E94DE
:1051E0004127809303038091030387FF05C00E943A
:1051F00041278195809303031C1624F40E944127C4
:10520000809304038091040387FF05C00E94412717
:10521000819580930403309103033323E1F02091BF
:1052200004032223C1F045EB3403C0011124992368
:1052300019F09093030303C081E08093030335EBDF
:105240002303C0011124992319F09093040303C090
:1052500081E0809304031D1624F40E948A27809322
:1052600005038091050387FF05C00E948A27819569
:1052700080930503111624F40E948A278093060365
:105280008091060387FF05C00E948A27819580933D
:105290000603DF91CF911F910C94B0289F3F09F036
:1052A00099CFAACFDF91CF911F910895E1E0F3E06C
:1052B00086E0DF011D928A95E9F71092FF021092B5
:1052C00000030895833081F128F4813059F0823051
:1052D000D1F00895853009F449C0B8F1863009F459
:1052E00056C008958091FC02262F30E0280F311D12
:1052F0002F3F310524F4680F6093FC0208958FEF6F
:105300008093FC02089580911E01262F30E0280F23
:10531000311D2F3F310524F4680F60931E0108955D
:105320008FEF80931E01089580911D01262F30E09C
:10533000280F311D2F3F310524F4680F60931D01A4
:1053400008958FEF80931D01089580911C01262FF1
:1053500030E0280F311D2F3F310524F4680F609392
:105360001C0108958FEF80931C01089580911B010B
:10537000262F30E0280F311D2F3F310524F4680F10
:1053800060931B0108958FEF80931B010895809116
:105390001A01262F30E0280F311D2F3F310524F44C
:1053A000680F60931A0108958FEF80931A01089592
:1053B000833011F128F4813049F0823091F0089562
:1053C000853081F120F18630C1F108958091FC0291
:1053D000681720F4861B8093FC0208951092FC024B
:1053E000089580911E01681720F4861B80931E018A
:1053F000089510921E01089580911D01681720F4F0
:10540000861B80931D01089510921D0108958091BF
:105410001C01681720F4861B80931C0108951092CC
:105420001C01089580911B01681720F4861B80934E
:105430001B01089510921B01089580911A016817AD
:1054400020F4861B80931A01089510921A01089582
:105450000F931F9341E050E060E070E08A019B01F0
:1054600004C0000F111F221F331F8A95D2F7C901F4
:10547000B8010E94F1211F910F910C94E41D482F57
:1054800050E0FA013597EF33F10508F06BC0ED57A6
:10549000FF4F0C94AF320E946A2560C08091F802E1
:1054A000817F8E7F8093F80281E0809308030895C6
:1054B0000E94E41D2FEF83ED90E321508040904047
:1054C000E1F700C000000E94F72648C08091F80272
:1054D000982F9095917090FB80F98093F80291112C
:1054E0003DC0897F877F10C08091F80281FB222711
:1054F00020F991E0922790FB81F98093F80299239B
:1055000069F18091F80281608093F80227C0809150
:10551000F80282FB222720F991E0922790FB82F982
:10552000ECCF8091F80283FB222720F991E09227AB
:1055300090FB83F9E2CF0E94E41D80917C0387FBFE
:10554000222720F991E0922790FB87F980937C0332
:1055500005C0895301C08D510E94282A81E0089519
:1055600080E0FACF80E0089580E008950C94B42A9A
:105570008E518A3030F4E82FF0E0E950FE4F808100
:10558000089580E00895CF93C82F8091080381305B
:1055900071F018F08230E1F184C00E94C92381319A
:1055A00051F00E94C923823209F07DC004C00E94DC
:1055B000C923813149F48C2F0E94B62A811109C078
:1055C0008C2F0E943F2A22C00E94C923823221F4DC
:1055D000F2CF81E090E01AC08C2F0E94B42A811192
:1055E00014C0C43179F048F4CB3079F0C03109F0FF
:1055F0005EC082E08093080308C0C93219F0C83346
:1056000021F055C01092080352C081E0817051C052
:10561000C93279F108F5C43161F1A0F4C73009F05D
:1056200044C01092FC0284E180931E01C0931D01CE
:105630008CE380931C0188E080931B0188E28093B7
:105640001A0133C082EE8C0F863078F58C2F0E94C1
:10565000B82A8093070329C0CE34E9F020F4CB3474
:1056600021F56AE013C0C13579F0C235F1F461E08B
:105670000DC080910703882319F01092070315C00D
:1056800081E08093080315C061E006C080910703A4
:105690000E9462290AC06AE0809107030E94D8290B
:1056A00004C01092080380E004C081E002C080E0E2
:1056B000ADCFCF9108958091290308950F931F9343
:1056C000CF93DF9300D01F92CDB7DEB78C010E943D
:1056D000CC2D823011F0843021F584E089831B8346
:1056E0000A8382E08093E9008FEF9091E800815077
:1056F00095FD06C095ED9A95F1F700008111F5CF63
:105700008091E80085FF0DC040E050E063E070E06C
:10571000CE0101960E94E92D8091E8008E7780935A
:10572000E8000F900F900F90DF91CF911F910F9194
:105730000895CF93DF9300D01F92CDB7DEB72091AD
:105740008203243031F523E02983805891099B831B
:105750008A8382E08093E9008FEF9091E800815086
:1057600095FD06C095ED9A95F1F700008111F5CFF2
:105770008091E80085FF0DC040E050E063E070E0FC
:10578000CE0101960E94E92D8091E8008E778093EA
:10579000E8000F900F900F90DF91CF910895CF9375
:1057A000DF93EC010E94CC2D823011F08430F9F4AB
:1057B00082E08093E9008FEF9091E800815095FDA1
:1057C00006C095ED9A95F1F700008111F5CF809113
:1057D000E80085FF0CC040E050E066E070E0CE01DC
:1057E0000E94E92D8091E8008E778093E800DF9198
:1057F000CF910895CF93DF93EC010E94CC2D82309E
:1058000011F08430D9F580912901882339F08091F5
:105810007C0387FF03C060E282E002C068E081E0B1
:105820008093E9008FEF9091E800815095FD06C0CC
:1058300095ED9A95F1F700008111F5CF8091E80080
:1058400085FF1CC080912901811105C040E050E016
:1058500068E070E003C070E040E050E0CE010E94DC
:10586000E92D8091E8008E778093E80080E2FE01C8
:10587000A9E0B3E001900D928A95E1F7DF91CF9115
:10588000089580918103811109C00E947A2F0E949E
:10589000D72F8091E20084608093E20008951092F7
:1058A00081030895089508950C94582642E061EC10
:1058B00081E00E94F32E42E261EC82E00C94F32E30
:1058C00080918403833009F460C030F4813071F03A
:1058D000823009F499C008958A3009F485C08B306C
:1058E00009F46BC0893009F0A7C020C08091830300
:1058F000813A09F0A1C08091E800877F8093E80099
:105900008091870390918803892B21F460E289E0DC
:1059100093E003C060E080E090E070E00E94342EED
:105920008091E8008B778093E8000895809183034D
:10593000813209F081C0809187039091880302979A
:1059400008F07AC08091E800877F8093E80080911A
:10595000E80082FD05C0809182038111F8CF6CC000
:105960002091F3008091F20090E0922B029729F4AD
:105970008091F1008B7F813021F48091F100809340
:1059800029038091E8008B7753C080918303813A8B
:1059900009F052C08091870390918803892B09F008
:1059A0004BC08091E800877F8093E8008091E800F9
:1059B00080FFFCCF8091290136C080918303813222
:1059C000D9F58091870390918803892BA9F580915F
:1059D000E800877F8093E8000E94282F809185034C
:1059E000809329010C94E41D80918303813221F579
:1059F0008091E800877F8093E8000E94282F8091A3
:105A0000860380932A03089580918303813AA1F449
:105A10008091E800877F8093E8008091E80080FF14
:105A2000FCCF80912A038093F1008091E8008E776B
:105A30008093E8000C94282F089584B7877F84BF53
:105A40000FB6F894A89580916000886180936000FB
:105A5000109260000FBE80E8809361001092610098
:105A60000E94FA170E947A2F0E94D72F8091E2009D
:105A700084608093E20078940E946C320E94021845
:105A80008FE191E00E94851780918203853069F44F
:105A90000E941526809180038823B1F30E94FD2582
:105AA000882391F30E94D32DEFCF0E940C180E94FF
:105AB000BA14EACF0C945C2D292F332723303105FB
:105AC000C9F060F42130310581F02230310509F050
:105AD0004AC08BE390E028E837E049C02132310525
